{
  "_format": "hh-sol-artifact-1",
  "contractName": "MiniSwap",
  "sourceName": "contracts/MiniSwap.sol",
  "abi": [
    {
      "inputs": [
        {
          "internalType": "address",
          "name": "_token0",
          "type": "address"
        },
        {
          "internalType": "address",
          "name": "_token1",
          "type": "address"
        }
      ],
      "stateMutability": "nonpayable",
      "type": "constructor"
    },
    {
      "anonymous": false,
      "inputs": [
        {
          "indexed": true,
          "internalType": "address",
          "name": "provider",
          "type": "address"
        },
        {
          "indexed": false,
          "internalType": "uint256",
          "name": "amount0",
          "type": "uint256"
        },
        {
          "indexed": false,
          "internalType": "uint256",
          "name": "amount1",
          "type": "uint256"
        },
        {
          "indexed": false,
          "internalType": "uint256",
          "name": "shares",
          "type": "uint256"
        }
      ],
      "name": "AddLiquidity",
      "type": "event"
    },
    {
      "anonymous": false,
      "inputs": [
        {
          "indexed": true,
          "internalType": "address",
          "name": "provider",
          "type": "address"
        },
        {
          "indexed": false,
          "internalType": "uint256",
          "name": "amount0",
          "type": "uint256"
        },
        {
          "indexed": false,
          "internalType": "uint256",
          "name": "amount1",
          "type": "uint256"
        },
        {
          "indexed": false,
          "internalType": "uint256",
          "name": "shares",
          "type": "uint256"
        }
      ],
      "name": "RemoveLiquidity",
      "type": "event"
    },
    {
      "anonymous": false,
      "inputs": [
        {
          "indexed": true,
          "internalType": "address",
          "name": "user",
          "type": "address"
        },
        {
          "indexed": false,
          "internalType": "address",
          "name": "tokenIn",
          "type": "address"
        },
        {
          "indexed": false,
          "internalType": "uint256",
          "name": "amountIn",
          "type": "uint256"
        },
        {
          "indexed": false,
          "internalType": "address",
          "name": "tokenOut",
          "type": "address"
        },
        {
          "indexed": false,
          "internalType": "uint256",
          "name": "amountOut",
          "type": "uint256"
        }
      ],
      "name": "Swap",
      "type": "event"
    },
    {
      "inputs": [
        {
          "internalType": "uint256",
          "name": "amount0",
          "type": "uint256"
        },
        {
          "internalType": "uint256",
          "name": "amount1",
          "type": "uint256"
        }
      ],
      "name": "addLiquidity",
      "outputs": [
        {
          "internalType": "uint256",
          "name": "shares",
          "type": "uint256"
        }
      ],
      "stateMutability": "nonpayable",
      "type": "function"
    },
    {
      "inputs": [
        {
          "internalType": "address",
          "name": "",
          "type": "address"
        }
      ],
      "name": "balanceOf",
      "outputs": [
        {
          "internalType": "uint256",
          "name": "",
          "type": "uint256"
        }
      ],
      "stateMutability": "view",
      "type": "function"
    },
    {
      "inputs": [],
      "name": "getReserves",
      "outputs": [
        {
          "internalType": "uint256",
          "name": "_reserve0",
          "type": "uint256"
        },
        {
          "internalType": "uint256",
          "name": "_reserve1",
          "type": "uint256"
        }
      ],
      "stateMutability": "view",
      "type": "function"
    },
    {
      "inputs": [
        {
          "internalType": "uint256",
          "name": "shares",
          "type": "uint256"
        }
      ],
      "name": "removeLiquidity",
      "outputs": [
        {
          "internalType": "uint256",
          "name": "amount0",
          "type": "uint256"
        },
        {
          "internalType": "uint256",
          "name": "amount1",
          "type": "uint256"
        }
      ],
      "stateMutability": "nonpayable",
      "type": "function"
    },
    {
      "inputs": [],
      "name": "reserve0",
      "outputs": [
        {
          "internalType": "uint256",
          "name": "",
          "type": "uint256"
        }
      ],
      "stateMutability": "view",
      "type": "function"
    },
    {
      "inputs": [],
      "name": "reserve1",
      "outputs": [
        {
          "internalType": "uint256",
          "name": "",
          "type": "uint256"
        }
      ],
      "stateMutability": "view",
      "type": "function"
    },
    {
      "inputs": [
        {
          "internalType": "address",
          "name": "tokenIn",
          "type": "address"
        },
        {
          "internalType": "uint256",
          "name": "amountIn",
          "type": "uint256"
        }
      ],
      "name": "swap",
      "outputs": [
        {
          "internalType": "uint256",
          "name": "amountOut",
          "type": "uint256"
        }
      ],
      "stateMutability": "nonpayable",
      "type": "function"
    },
    {
      "inputs": [],
      "name": "token0",
      "outputs": [
        {
          "internalType": "address",
          "name": "",
          "type": "address"
        }
      ],
      "stateMutability": "view",
      "type": "function"
    },
    {
      "inputs": [],
      "name": "token1",
      "outputs": [
        {
          "internalType": "address",
          "name": "",
          "type": "address"
        }
      ],
      "stateMutability": "view",
      "type": "function"
    },
    {
      "inputs": [],
      "name": "totalSupply",
      "outputs": [
        {
          "internalType": "uint256",
          "name": "",
          "type": "uint256"
        }
      ],
      "stateMutability": "view",
      "type": "function"
    }
  ],
  "bytecode": "0x60806040523480156200001157600080fd5b50604051620014973803806200149783398181016040528101906200003791906200012a565b816000806101000a81548173ffffffffffffffffffffffffffffffffffffffff021916908373ffffffffffffffffffffffffffffffffffffffff16021790555080600160006101000a81548173ffffffffffffffffffffffffffffffffffffffff021916908373ffffffffffffffffffffffffffffffffffffffff160217905550505062000171565b600080fd5b600073ffffffffffffffffffffffffffffffffffffffff82169050919050565b6000620000f282620000c5565b9050919050565b6200010481620000e5565b81146200011057600080fd5b50565b6000815190506200012481620000f9565b92915050565b60008060408385031215620001445762000143620000c0565b5b6000620001548582860162000113565b9250506020620001678582860162000113565b9150509250929050565b61131680620001816000396000f3fe608060405234801561001057600080fd5b506004361061009e5760003560e01c806370a082311161006657806370a082311461013a5780639c8f9f231461016a5780639cd441da1461019b578063d004f0f7146101cb578063d21220a7146101fb5761009e565b80630902f1ac146100a35780630dfe1681146100c257806318160ddd146100e0578063443cb4bc146100fe5780635a76f25e1461011c575b600080fd5b6100ab610219565b6040516100b9929190610cce565b60405180910390f35b6100ca61022a565b6040516100d79190610d38565b60405180910390f35b6100e861024e565b6040516100f59190610d53565b60405180910390f35b610106610254565b6040516101139190610d53565b60405180910390f35b61012461025a565b6040516101319190610d53565b60405180910390f35b610154600480360381019061014f9190610d9f565b610260565b6040516101619190610d53565b60405180910390f35b610184600480360381019061017f9190610df8565b610278565b604051610192929190610cce565b60405180910390f35b6101b560048036038101906101b09190610e25565b6105be565b6040516101c29190610d53565b60405180910390f35b6101e560048036038101906101e09190610e65565b610894565b6040516101f29190610d53565b60405180910390f35b610203610c8f565b6040516102109190610d38565b60405180910390f35b600080600254600354915091509091565b60008054906101000a900473ffffffffffffffffffffffffffffffffffffffff1681565b60045481565b60025481565b60035481565b60056020528060005260406000206000915090505481565b60008082600560003373ffffffffffffffffffffffffffffffffffffffff1673ffffffffffffffffffffffffffffffffffffffff1681526020019081526020016000205410156102fd576040517f08c379a00000000000000000000000000000000000000000000000000000000081526004016102f490610f02565b60405180910390fd5b6004546002548461030e9190610f51565b6103189190610fc2565b91506004546003548461032b9190610f51565b6103359190610fc2565b90506000821180156103475750600081115b610386576040517f08c379a000000000000000000000000000000000000000000000000000000000815260040161037d9061103f565b60405180910390fd5b82600560003373ffffffffffffffffffffffffffffffffffffffff1673ffffffffffffffffffffffffffffffffffffffff16815260200190815260200160002060008282546103d5919061105f565b9250508190555082600460008282546103ee919061105f565b925050819055508160026000828254610407919061105f565b925050819055508060036000828254610420919061105f565b9250508190555060008054906101000a900473ffffffffffffffffffffffffffffffffffffffff1673ffffffffffffffffffffffffffffffffffffffff1663a9059cbb33846040518363ffffffff1660e01b8152600401610482929190611093565b6020604051808303816000875af11580156104a1573d6000803e3d6000fd5b505050506040513d601f19601f820116820180604052508101906104c591906110f4565b50600160009054906101000a900473ffffffffffffffffffffffffffffffffffffffff1673ffffffffffffffffffffffffffffffffffffffff1663a9059cbb33836040518363ffffffff1660e01b8152600401610523929190611093565b6020604051808303816000875af1158015610542573d6000803e3d6000fd5b505050506040513d601f19601f8201168201806040525081019061056691906110f4565b503373ffffffffffffffffffffffffffffffffffffffff167f59c3a0b60c6ab7deb62e1440c9e72441db6db7dfe514dba8cb18e60c0d896efa8383866040516105b193929190611121565b60405180910390a2915091565b60008060009054906101000a900473ffffffffffffffffffffffffffffffffffffffff1673ffffffffffffffffffffffffffffffffffffffff166323b872dd3330866040518463ffffffff1660e01b815260040161061e93929190611158565b6020604051808303816000875af115801561063d573d6000803e3d6000fd5b505050506040513d601f19601f8201168201806040525081019061066191906110f4565b50600160009054906101000a900473ffffffffffffffffffffffffffffffffffffffff1673ffffffffffffffffffffffffffffffffffffffff166323b872dd3330856040518463ffffffff1660e01b81526004016106c193929190611158565b6020604051808303816000875af11580156106e0573d6000803e3d6000fd5b505050506040513d601f19601f8201168201806040525081019061070491906110f4565b5060006004540361072257818361071b919061118f565b9050610758565b600354600254610732919061118f565b6004548385610741919061118f565b61074b9190610f51565b6107559190610fc2565b90505b6000811161079b576040517f08c379a00000000000000000000000000000000000000000000000000000000081526004016107929061103f565b60405180910390fd5b80600560003373ffffffffffffffffffffffffffffffffffffffff1673ffffffffffffffffffffffffffffffffffffffff16815260200190815260200160002060008282546107ea919061118f565b925050819055508060046000828254610803919061118f565b92505081905550826002600082825461081c919061118f565b925050819055508160036000828254610835919061118f565b925050819055503373ffffffffffffffffffffffffffffffffffffffff167fbeb3885786d637a474cbc287c0a44587231633a077f0bd30354d5a4b18996fce84848460405161088693929190611121565b60405180910390a292915050565b60008060009054906101000a900473ffffffffffffffffffffffffffffffffffffffff1673ffffffffffffffffffffffffffffffffffffffff168373ffffffffffffffffffffffffffffffffffffffff16148061093e5750600160009054906101000a900473ffffffffffffffffffffffffffffffffffffffff1673ffffffffffffffffffffffffffffffffffffffff168373ffffffffffffffffffffffffffffffffffffffff16145b61097d576040517f08c379a00000000000000000000000000000000000000000000000000000000081526004016109749061120f565b60405180910390fd5b600082116109c0576040517f08c379a00000000000000000000000000000000000000000000000000000000081526004016109b79061127b565b60405180910390fd5b60008060009054906101000a900473ffffffffffffffffffffffffffffffffffffffff1673ffffffffffffffffffffffffffffffffffffffff168473ffffffffffffffffffffffffffffffffffffffff16149050600081610a415760008054906101000a900473ffffffffffffffffffffffffffffffffffffffff16610a65565b600160009054906101000a900473ffffffffffffffffffffffffffffffffffffffff165b9050839250600082610a7957600254610a7d565b6003545b905080841115610ac2576040517f08c379a0000000000000000000000000000000000000000000000000000000008152600401610ab99061103f565b60405180910390fd5b8573ffffffffffffffffffffffffffffffffffffffff166323b872dd3330886040518463ffffffff1660e01b8152600401610aff93929190611158565b6020604051808303816000875af1158015610b1e573d6000803e3d6000fd5b505050506040513d601f19601f82011682018060405250810190610b4291906110f4565b508215610b80578460026000828254610b5b919061118f565b925050819055508360036000828254610b74919061105f565b92505081905550610bb3565b8460036000828254610b92919061118f565b925050819055508360026000828254610bab919061105f565b925050819055505b8173ffffffffffffffffffffffffffffffffffffffff1663a9059cbb33866040518363ffffffff1660e01b8152600401610bee929190611093565b6020604051808303816000875af1158015610c0d573d6000803e3d6000fd5b505050506040513d601f19601f82011682018060405250810190610c3191906110f4565b503373ffffffffffffffffffffffffffffffffffffffff167f5380cf97d8f645d3c4896da60c053458dca03a3a31cec642ac80e1ddf0d8d02a87878588604051610c7e949392919061129b565b60405180910390a250505092915050565b600160009054906101000a900473ffffffffffffffffffffffffffffffffffffffff1681565b6000819050919050565b610cc881610cb5565b82525050565b6000604082019050610ce36000830185610cbf565b610cf06020830184610cbf565b9392505050565b600073ffffffffffffffffffffffffffffffffffffffff82169050919050565b6000610d2282610cf7565b9050919050565b610d3281610d17565b82525050565b6000602082019050610d4d6000830184610d29565b92915050565b6000602082019050610d686000830184610cbf565b92915050565b600080fd5b610d7c81610d17565b8114610d8757600080fd5b50565b600081359050610d9981610d73565b92915050565b600060208284031215610db557610db4610d6e565b5b6000610dc384828501610d8a565b91505092915050565b610dd581610cb5565b8114610de057600080fd5b50565b600081359050610df281610dcc565b92915050565b600060208284031215610e0e57610e0d610d6e565b5b6000610e1c84828501610de3565b91505092915050565b60008060408385031215610e3c57610e3b610d6e565b5b6000610e4a85828601610de3565b9250506020610e5b85828601610de3565b9150509250929050565b60008060408385031215610e7c57610e7b610d6e565b5b6000610e8a85828601610d8a565b9250506020610e9b85828601610de3565b9150509250929050565b600082825260208201905092915050565b7f4d696e69537761703a20494e53554646494349454e545f534841524553000000600082015250565b6000610eec601d83610ea5565b9150610ef782610eb6565b602082019050919050565b60006020820190508181036000830152610f1b81610edf565b9050919050565b7f4e487b7100000000000000000000000000000000000000000000000000000000600052601160045260246000fd5b6000610f5c82610cb5565b9150610f6783610cb5565b9250828202610f7581610cb5565b91508282048414831517610f8c57610f8b610f22565b5b5092915050565b7f4e487b7100000000000000000000000000000000000000000000000000000000600052601260045260246000fd5b6000610fcd82610cb5565b9150610fd883610cb5565b925082610fe857610fe7610f93565b5b828204905092915050565b7f4d696e69537761703a20494e53554646494349454e545f4c4951554944495459600082015250565b6000611029602083610ea5565b915061103482610ff3565b602082019050919050565b600060208201905081810360008301526110588161101c565b9050919050565b600061106a82610cb5565b915061107583610cb5565b925082820390508181111561108d5761108c610f22565b5b92915050565b60006040820190506110a86000830185610d29565b6110b56020830184610cbf565b9392505050565b60008115159050919050565b6110d1816110bc565b81146110dc57600080fd5b50565b6000815190506110ee816110c8565b92915050565b60006020828403121561110a57611109610d6e565b5b6000611118848285016110df565b91505092915050565b60006060820190506111366000830186610cbf565b6111436020830185610cbf565b6111506040830184610cbf565b949350505050565b600060608201905061116d6000830186610d29565b61117a6020830185610d29565b6111876040830184610cbf565b949350505050565b600061119a82610cb5565b91506111a583610cb5565b92508282019050808211156111bd576111bc610f22565b5b92915050565b7f4d696e69537761703a20494e56414c49445f544f4b454e000000000000000000600082015250565b60006111f9601783610ea5565b9150611204826111c3565b602082019050919050565b60006020820190508181036000830152611228816111ec565b9050919050565b7f4d696e69537761703a205a45524f5f414d4f554e540000000000000000000000600082015250565b6000611265601583610ea5565b91506112708261122f565b602082019050919050565b6000602082019050818103600083015261129481611258565b9050919050565b60006080820190506112b06000830187610d29565b6112bd6020830186610cbf565b6112ca6040830185610d29565b6112d76060830184610cbf565b9594505050505056fea2646970667358221220ebff0657d4a6c71d3bbafab30fd1001c30907a9a620e9b6842c480020fa8ab1664736f6c63430008140033",
  "linkReferences": {},
  "deployedLinkReferences": {}
}