{
  "_format": "hh-sol-artifact-1",
  "contractName": "MiniSwap",
  "sourceName": "contracts/MiniSwap.sol",
  "abi": [
    {
      "inputs": [],
      "name": "ReentrancyGuardReentrantCall",
      "type": "error"
    },
    {
      "anonymous": false,
      "inputs": [
        {
          "indexed": true,
          "internalType": "address",
          "name": "provider",
          "type": "address"
        },
        {
          "indexed": true,
          "internalType": "address",
          "name": "tokenA",
          "type": "address"
        },
        {
          "indexed": true,
          "internalType": "address",
          "name": "tokenB",
          "type": "address"
        },
        {
          "indexed": false,
          "internalType": "uint256",
          "name": "amountA",
          "type": "uint256"
        },
        {
          "indexed": false,
          "internalType": "uint256",
          "name": "amountB",
          "type": "uint256"
        },
        {
          "indexed": false,
          "internalType": "uint256",
          "name": "liquidity",
          "type": "uint256"
        }
      ],
      "name": "LiquidityAdded",
      "type": "event"
    },
    {
      "anonymous": false,
      "inputs": [
        {
          "indexed": true,
          "internalType": "address",
          "name": "provider",
          "type": "address"
        },
        {
          "indexed": true,
          "internalType": "address",
          "name": "tokenA",
          "type": "address"
        },
        {
          "indexed": true,
          "internalType": "address",
          "name": "tokenB",
          "type": "address"
        },
        {
          "indexed": false,
          "internalType": "uint256",
          "name": "amountA",
          "type": "uint256"
        },
        {
          "indexed": false,
          "internalType": "uint256",
          "name": "amountB",
          "type": "uint256"
        },
        {
          "indexed": false,
          "internalType": "uint256",
          "name": "liquidity",
          "type": "uint256"
        }
      ],
      "name": "LiquidityRemoved",
      "type": "event"
    },
    {
      "anonymous": false,
      "inputs": [
        {
          "indexed": true,
          "internalType": "address",
          "name": "user",
          "type": "address"
        },
        {
          "indexed": true,
          "internalType": "address",
          "name": "tokenIn",
          "type": "address"
        },
        {
          "indexed": true,
          "internalType": "address",
          "name": "tokenOut",
          "type": "address"
        },
        {
          "indexed": false,
          "internalType": "uint256",
          "name": "amountIn",
          "type": "uint256"
        },
        {
          "indexed": false,
          "internalType": "uint256",
          "name": "amountOut",
          "type": "uint256"
        }
      ],
      "name": "Swap",
      "type": "event"
    },
    {
      "inputs": [
        {
          "internalType": "address",
          "name": "tokenA",
          "type": "address"
        },
        {
          "internalType": "address",
          "name": "tokenB",
          "type": "address"
        },
        {
          "internalType": "uint256",
          "name": "amountA",
          "type": "uint256"
        },
        {
          "internalType": "uint256",
          "name": "amountB",
          "type": "uint256"
        }
      ],
      "name": "addLiquidity",
      "outputs": [
        {
          "internalType": "uint256",
          "name": "liquidity",
          "type": "uint256"
        }
      ],
      "stateMutability": "nonpayable",
      "type": "function"
    },
    {
      "inputs": [
        {
          "internalType": "uint256",
          "name": "",
          "type": "uint256"
        }
      ],
      "name": "allPairs",
      "outputs": [
        {
          "internalType": "bytes32",
          "name": "",
          "type": "bytes32"
        }
      ],
      "stateMutability": "view",
      "type": "function"
    },
    {
      "inputs": [],
      "name": "allPairsLength",
      "outputs": [
        {
          "internalType": "uint256",
          "name": "",
          "type": "uint256"
        }
      ],
      "stateMutability": "view",
      "type": "function"
    },
    {
      "inputs": [
        {
          "internalType": "address",
          "name": "tokenA",
          "type": "address"
        },
        {
          "internalType": "address",
          "name": "tokenB",
          "type": "address"
        }
      ],
      "name": "getPairHash",
      "outputs": [
        {
          "internalType": "bytes32",
          "name": "",
          "type": "bytes32"
        }
      ],
      "stateMutability": "pure",
      "type": "function"
    },
    {
      "inputs": [
        {
          "internalType": "address",
          "name": "tokenA",
          "type": "address"
        },
        {
          "internalType": "address",
          "name": "tokenB",
          "type": "address"
        }
      ],
      "name": "getPool",
      "outputs": [
        {
          "internalType": "address",
          "name": "token0",
          "type": "address"
        },
        {
          "internalType": "address",
          "name": "token1",
          "type": "address"
        },
        {
          "internalType": "uint256",
          "name": "reserve0",
          "type": "uint256"
        },
        {
          "internalType": "uint256",
          "name": "reserve1",
          "type": "uint256"
        },
        {
          "internalType": "uint256",
          "name": "totalLiquidity",
          "type": "uint256"
        }
      ],
      "stateMutability": "view",
      "type": "function"
    },
    {
      "inputs": [
        {
          "internalType": "address",
          "name": "tokenA",
          "type": "address"
        },
        {
          "internalType": "address",
          "name": "tokenB",
          "type": "address"
        },
        {
          "internalType": "address",
          "name": "user",
          "type": "address"
        }
      ],
      "name": "getUserLiquidity",
      "outputs": [
        {
          "internalType": "uint256",
          "name": "",
          "type": "uint256"
        }
      ],
      "stateMutability": "view",
      "type": "function"
    },
    {
      "inputs": [
        {
          "internalType": "bytes32",
          "name": "",
          "type": "bytes32"
        }
      ],
      "name": "pools",
      "outputs": [
        {
          "internalType": "address",
          "name": "tokenA",
          "type": "address"
        },
        {
          "internalType": "address",
          "name": "tokenB",
          "type": "address"
        },
        {
          "internalType": "uint256",
          "name": "reserveA",
          "type": "uint256"
        },
        {
          "internalType": "uint256",
          "name": "reserveB",
          "type": "uint256"
        },
        {
          "internalType": "uint256",
          "name": "totalLiquidity",
          "type": "uint256"
        }
      ],
      "stateMutability": "view",
      "type": "function"
    },
    {
      "inputs": [
        {
          "internalType": "address",
          "name": "tokenA",
          "type": "address"
        },
        {
          "internalType": "address",
          "name": "tokenB",
          "type": "address"
        },
        {
          "internalType": "uint256",
          "name": "liquidity",
          "type": "uint256"
        }
      ],
      "name": "removeLiquidity",
      "outputs": [
        {
          "internalType": "uint256",
          "name": "amountA",
          "type": "uint256"
        },
        {
          "internalType": "uint256",
          "name": "amountB",
          "type": "uint256"
        }
      ],
      "stateMutability": "nonpayable",
      "type": "function"
    },
    {
      "inputs": [
        {
          "internalType": "address",
          "name": "tokenIn",
          "type": "address"
        },
        {
          "internalType": "address",
          "name": "tokenOut",
          "type": "address"
        },
        {
          "internalType": "uint256",
          "name": "amountIn",
          "type": "uint256"
        }
      ],
      "name": "swap",
      "outputs": [
        {
          "internalType": "uint256",
          "name": "amountOut",
          "type": "uint256"
        }
      ],
      "stateMutability": "nonpayable",
      "type": "function"
    }
  ],
  "bytecode": "0x6080604052348015600f57600080fd5b506001600081905550611fef806100276000396000f3fe608060405234801561001057600080fd5b50600436106100935760003560e01c8063b5217bb411610066578063b5217bb41461014a578063cf6c62ea1461017e578063d752fab2146101ae578063d7b7961c146101df578063df791e501461020f57610093565b80631e3dd18b14610098578063531aa03e146100c8578063574f2ba3146100fc5780639c8d8cf11461011a575b600080fd5b6100b260048036038101906100ad91906114f5565b61023f565b6040516100bf919061153b565b60405180910390f35b6100e260048036038101906100dd91906115b4565b610263565b6040516100f3959493929190611612565b60405180910390f35b6101046102fe565b6040516101119190611665565b60405180910390f35b610134600480360381019061012f9190611680565b61030b565b6040516101419190611665565b60405180910390f35b610164600480360381019061015f91906116ff565b61037e565b604051610175959493929190611612565b60405180910390f35b6101986004803603810190610193919061172c565b6103f4565b6040516101a59190611665565b60405180910390f35b6101c860048036038101906101c39190611793565b61092f565b6040516101d69291906117e6565b60405180910390f35b6101f960048036038101906101f491906115b4565b610e3a565b604051610206919061153b565b60405180910390f35b61022960048036038101906102249190611793565b610eb3565b6040516102369190611665565b60405180910390f35b6002818154811061024f57600080fd5b906000526020600020016000915090505481565b6000806000806000806102768888610e3a565b905060006001600083815260200190815260200160002090508060000160009054906101000a900473ffffffffffffffffffffffffffffffffffffffff168160010160009054906101000a900473ffffffffffffffffffffffffffffffffffffffff168260020154836003015484600401549650965096509650965050509295509295909350565b6000600280549050905090565b6000806103188585610e3a565b905060006001600083815260200190815260200160002090508060050160008573ffffffffffffffffffffffffffffffffffffffff1673ffffffffffffffffffffffffffffffffffffffff16815260200190815260200160002054925050509392505050565b60016020528060005260406000206000915090508060000160009054906101000a900473ffffffffffffffffffffffffffffffffffffffff16908060010160009054906101000a900473ffffffffffffffffffffffffffffffffffffffff16908060020154908060030154908060040154905085565b60006103fe61133e565b60008311801561040e5750600082115b61044d576040517f08c379a00000000000000000000000000000000000000000000000000000000081526004016104449061186c565b60405180910390fd5b8373ffffffffffffffffffffffffffffffffffffffff168573ffffffffffffffffffffffffffffffffffffffff16036104bb576040517f08c379a00000000000000000000000000000000000000000000000000000000081526004016104b2906118fe565b60405180910390fd5b60006104c78686610e3a565b90506000600160008381526020019081526020016000209050600073ffffffffffffffffffffffffffffffffffffffff168160000160009054906101000a900473ffffffffffffffffffffffffffffffffffffffff1673ffffffffffffffffffffffffffffffffffffffff16036105fb576000806105458989611384565b91509150818360000160006101000a81548173ffffffffffffffffffffffffffffffffffffffff021916908373ffffffffffffffffffffffffffffffffffffffff160217905550808360010160006101000a81548173ffffffffffffffffffffffffffffffffffffffff021916908373ffffffffffffffffffffffffffffffffffffffff160217905550600284908060018154018082558091505060019003906000526020600020016000909190919091505550505b6000808260000160009054906101000a900473ffffffffffffffffffffffffffffffffffffffff1673ffffffffffffffffffffffffffffffffffffffff168973ffffffffffffffffffffffffffffffffffffffff161461065c57858761065f565b86865b915091508082146106a5576040517f08c379a000000000000000000000000000000000000000000000000000000000815260040161069c90611990565b60405180910390fd5b8260000160009054906101000a900473ffffffffffffffffffffffffffffffffffffffff1673ffffffffffffffffffffffffffffffffffffffff166323b872dd3330856040518463ffffffff1660e01b8152600401610706939291906119b0565b6020604051808303816000875af1158015610725573d6000803e3d6000fd5b505050506040513d601f19601f820116820180604052508101906107499190611a1f565b508260010160009054906101000a900473ffffffffffffffffffffffffffffffffffffffff1673ffffffffffffffffffffffffffffffffffffffff166323b872dd3330846040518463ffffffff1660e01b81526004016107ab939291906119b0565b6020604051808303816000875af11580156107ca573d6000803e3d6000fd5b505050506040513d601f19601f820116820180604052508101906107ee9190611a1f565b50819450818360020160008282546108069190611a7b565b92505081905550808360030160008282546108219190611a7b565b925050819055508483600401600082825461083c9190611a7b565b92505081905550848360050160003373ffffffffffffffffffffffffffffffffffffffff1673ffffffffffffffffffffffffffffffffffffffff16815260200190815260200160002060008282546108949190611a7b565b925050819055508773ffffffffffffffffffffffffffffffffffffffff168973ffffffffffffffffffffffffffffffffffffffff163373ffffffffffffffffffffffffffffffffffffffff167f43c967b388d3a4ccad3f7ab80167852e322e5a3fde9893f530252281b2ae8b708a8a8a60405161091393929190611aaf565b60405180910390a4505050506109276114b0565b949350505050565b60008061093a61133e565b6000831161097d576040517f08c379a000000000000000000000000000000000000000000000000000000000815260040161097490611b32565b60405180910390fd5b60006109898686610e3a565b90506000600160008381526020019081526020016000209050600073ffffffffffffffffffffffffffffffffffffffff168160000160009054906101000a900473ffffffffffffffffffffffffffffffffffffffff1673ffffffffffffffffffffffffffffffffffffffff1603610a35576040517f08c379a0000000000000000000000000000000000000000000000000000000008152600401610a2c90611b9e565b60405180910390fd5b848160050160003373ffffffffffffffffffffffffffffffffffffffff1673ffffffffffffffffffffffffffffffffffffffff168152602001908152602001600020541015610ab9576040517f08c379a0000000000000000000000000000000000000000000000000000000008152600401610ab090611c0a565b60405180910390fd5b60008160040154826002015487610ad09190611c2a565b610ada9190611c9b565b905060008260040154836003015488610af39190611c2a565b610afd9190611c9b565b9050600082118015610b0f5750600081115b610b4e576040517f08c379a0000000000000000000000000000000000000000000000000000000008152600401610b4590611d18565b60405180910390fd5b868360050160003373ffffffffffffffffffffffffffffffffffffffff1673ffffffffffffffffffffffffffffffffffffffff1681526020019081526020016000206000828254610b9f9190611d38565b9250508190555086836004016000828254610bba9190611d38565b9250508190555081836002016000828254610bd59190611d38565b9250508190555080836003016000828254610bf09190611d38565b925050819055508260000160009054906101000a900473ffffffffffffffffffffffffffffffffffffffff1673ffffffffffffffffffffffffffffffffffffffff1663a9059cbb33846040518363ffffffff1660e01b8152600401610c56929190611d6c565b6020604051808303816000875af1158015610c75573d6000803e3d6000fd5b505050506040513d601f19601f82011682018060405250810190610c999190611a1f565b508260010160009054906101000a900473ffffffffffffffffffffffffffffffffffffffff1673ffffffffffffffffffffffffffffffffffffffff1663a9059cbb33836040518363ffffffff1660e01b8152600401610cf9929190611d6c565b6020604051808303816000875af1158015610d18573d6000803e3d6000fd5b505050506040513d601f19601f82011682018060405250810190610d3c9190611a1f565b508260000160009054906101000a900473ffffffffffffffffffffffffffffffffffffffff1673ffffffffffffffffffffffffffffffffffffffff168973ffffffffffffffffffffffffffffffffffffffff1614610d9b578082610d9e565b81815b80965081975050508773ffffffffffffffffffffffffffffffffffffffff168973ffffffffffffffffffffffffffffffffffffffff163373ffffffffffffffffffffffffffffffffffffffff167fd765e08eef31c0983ecca03ecd166297ac485ecd5dd69e291c848f0a020333c189898c604051610e1e93929190611aaf565b60405180910390a450505050610e326114b0565b935093915050565b60008060008373ffffffffffffffffffffffffffffffffffffffff168573ffffffffffffffffffffffffffffffffffffffff1610610e79578385610e7c565b84845b915091508181604051602001610e93929190611ddd565b604051602081830303815290604052805190602001209250505092915050565b6000610ebd61133e565b60008211610f00576040517f08c379a0000000000000000000000000000000000000000000000000000000008152600401610ef790611e55565b60405180910390fd5b8273ffffffffffffffffffffffffffffffffffffffff168473ffffffffffffffffffffffffffffffffffffffff1603610f6e576040517f08c379a0000000000000000000000000000000000000000000000000000000008152600401610f6590611ec1565b60405180910390fd5b6000610f7a8585610e3a565b90506000600160008381526020019081526020016000209050600073ffffffffffffffffffffffffffffffffffffffff168160000160009054906101000a900473ffffffffffffffffffffffffffffffffffffffff1673ffffffffffffffffffffffffffffffffffffffff1603611026576040517f08c379a000000000000000000000000000000000000000000000000000000000815260040161101d90611b9e565b60405180910390fd5b8392506000808260000160009054906101000a900473ffffffffffffffffffffffffffffffffffffffff1673ffffffffffffffffffffffffffffffffffffffff168873ffffffffffffffffffffffffffffffffffffffff1614611092578260030154836002015461109d565b826002015483600301545b91509150848110156110e4576040517f08c379a00000000000000000000000000000000000000000000000000000000081526004016110db90611c0a565b60405180910390fd5b8773ffffffffffffffffffffffffffffffffffffffff166323b872dd3330896040518463ffffffff1660e01b8152600401611121939291906119b0565b6020604051808303816000875af1158015611140573d6000803e3d6000fd5b505050506040513d601f19601f820116820180604052508101906111649190611a1f565b508260000160009054906101000a900473ffffffffffffffffffffffffffffffffffffffff1673ffffffffffffffffffffffffffffffffffffffff168873ffffffffffffffffffffffffffffffffffffffff16036111f757858360020160008282546111d09190611a7b565b92505081905550848360030160008282546111eb9190611d38565b9250508190555061122e565b8583600301600082825461120b9190611a7b565b92505081905550848360020160008282546112269190611d38565b925050819055505b8673ffffffffffffffffffffffffffffffffffffffff1663a9059cbb33876040518363ffffffff1660e01b8152600401611269929190611d6c565b6020604051808303816000875af1158015611288573d6000803e3d6000fd5b505050506040513d601f19601f820116820180604052508101906112ac9190611a1f565b508673ffffffffffffffffffffffffffffffffffffffff168873ffffffffffffffffffffffffffffffffffffffff163373ffffffffffffffffffffffffffffffffffffffff167fcd3829a3813dc3cdd188fd3d01dcf3268c16be2fdd2dd21d0665418816e4606289896040516113239291906117e6565b60405180910390a4505050506113376114b0565b9392505050565b60026000540361137a576040517f3ee5aeb500000000000000000000000000000000000000000000000000000000815260040160405180910390fd5b6002600081905550565b6000808273ffffffffffffffffffffffffffffffffffffffff168473ffffffffffffffffffffffffffffffffffffffff16036113f5576040517f08c379a00000000000000000000000000000000000000000000000000000000081526004016113ec90611f2d565b60405180910390fd5b8273ffffffffffffffffffffffffffffffffffffffff168473ffffffffffffffffffffffffffffffffffffffff161061142f578284611432565b83835b8092508193505050600073ffffffffffffffffffffffffffffffffffffffff168273ffffffffffffffffffffffffffffffffffffffff16036114a9576040517f08c379a00000000000000000000000000000000000000000000000000000000081526004016114a090611f99565b60405180910390fd5b9250929050565b6001600081905550565b600080fd5b6000819050919050565b6114d2816114bf565b81146114dd57600080fd5b50565b6000813590506114ef816114c9565b92915050565b60006020828403121561150b5761150a6114ba565b5b6000611519848285016114e0565b91505092915050565b6000819050919050565b61153581611522565b82525050565b6000602082019050611550600083018461152c565b92915050565b600073ffffffffffffffffffffffffffffffffffffffff82169050919050565b600061158182611556565b9050919050565b61159181611576565b811461159c57600080fd5b50565b6000813590506115ae81611588565b92915050565b600080604083850312156115cb576115ca6114ba565b5b60006115d98582860161159f565b92505060206115ea8582860161159f565b9150509250929050565b6115fd81611576565b82525050565b61160c816114bf565b82525050565b600060a08201905061162760008301886115f4565b61163460208301876115f4565b6116416040830186611603565b61164e6060830185611603565b61165b6080830184611603565b9695505050505050565b600060208201905061167a6000830184611603565b92915050565b600080600060608486031215611699576116986114ba565b5b60006116a78682870161159f565b93505060206116b88682870161159f565b92505060406116c98682870161159f565b9150509250925092565b6116dc81611522565b81146116e757600080fd5b50565b6000813590506116f9816116d3565b92915050565b600060208284031215611715576117146114ba565b5b6000611723848285016116ea565b91505092915050565b60008060008060808587031215611746576117456114ba565b5b60006117548782880161159f565b94505060206117658782880161159f565b9350506040611776878288016114e0565b9250506060611787878288016114e0565b91505092959194509250565b6000806000606084860312156117ac576117ab6114ba565b5b60006117ba8682870161159f565b93505060206117cb8682870161159f565b92505060406117dc868287016114e0565b9150509250925092565b60006040820190506117fb6000830185611603565b6118086020830184611603565b9392505050565b600082825260208201905092915050565b7f416d6f756e7473206d7573742062652067726561746572207468616e20300000600082015250565b6000611856601e8361180f565b915061186182611820565b602082019050919050565b6000602082019050818103600083015261188581611849565b9050919050565b7f43616e6e6f7420637265617465207061697220776974682073616d6520746f6b60008201527f656e000000000000000000000000000000000000000000000000000000000000602082015250565b60006118e860228361180f565b91506118f38261188c565b604082019050919050565b60006020820190508181036000830152611917816118db565b9050919050565b7f416d6f756e7473206d75737420626520657175616c20666f7220313a3120726160008201527f74696f0000000000000000000000000000000000000000000000000000000000602082015250565b600061197a60238361180f565b91506119858261191e565b604082019050919050565b600060208201905081810360008301526119a98161196d565b9050919050565b60006060820190506119c560008301866115f4565b6119d260208301856115f4565b6119df6040830184611603565b949350505050565b60008115159050919050565b6119fc816119e7565b8114611a0757600080fd5b50565b600081519050611a19816119f3565b92915050565b600060208284031215611a3557611a346114ba565b5b6000611a4384828501611a0a565b91505092915050565b7f4e487b7100000000000000000000000000000000000000000000000000000000600052601160045260246000fd5b6000611a86826114bf565b9150611a91836114bf565b9250828201905080821115611aa957611aa8611a4c565b5b92915050565b6000606082019050611ac46000830186611603565b611ad16020830185611603565b611ade6040830184611603565b949350505050565b7f4c6971756964697479206d7573742062652067726561746572207468616e2030600082015250565b6000611b1c60208361180f565b9150611b2782611ae6565b602082019050919050565b60006020820190508181036000830152611b4b81611b0f565b9050919050565b7f506f6f6c20646f6573206e6f7420657869737400000000000000000000000000600082015250565b6000611b8860138361180f565b9150611b9382611b52565b602082019050919050565b60006020820190508181036000830152611bb781611b7b565b9050919050565b7f496e73756666696369656e74206c697175696469747900000000000000000000600082015250565b6000611bf460168361180f565b9150611bff82611bbe565b602082019050919050565b60006020820190508181036000830152611c2381611be7565b9050919050565b6000611c35826114bf565b9150611c40836114bf565b9250828202611c4e816114bf565b91508282048414831517611c6557611c64611a4c565b5b5092915050565b7f4e487b7100000000000000000000000000000000000000000000000000000000600052601260045260246000fd5b6000611ca6826114bf565b9150611cb1836114bf565b925082611cc157611cc0611c6c565b5b828204905092915050565b7f496e73756666696369656e74206c6971756964697479206275726e6564000000600082015250565b6000611d02601d8361180f565b9150611d0d82611ccc565b602082019050919050565b60006020820190508181036000830152611d3181611cf5565b9050919050565b6000611d43826114bf565b9150611d4e836114bf565b9250828203905081811115611d6657611d65611a4c565b5b92915050565b6000604082019050611d8160008301856115f4565b611d8e6020830184611603565b9392505050565b60008160601b9050919050565b6000611dad82611d95565b9050919050565b6000611dbf82611da2565b9050919050565b611dd7611dd282611576565b611db4565b82525050565b6000611de98285611dc6565b601482019150611df98284611dc6565b6014820191508190509392505050565b7f416d6f756e74206d7573742062652067726561746572207468616e2030000000600082015250565b6000611e3f601d8361180f565b9150611e4a82611e09565b602082019050919050565b60006020820190508181036000830152611e6e81611e32565b9050919050565b7f43616e6e6f7420737761702073616d6520746f6b656e00000000000000000000600082015250565b6000611eab60168361180f565b9150611eb682611e75565b602082019050919050565b60006020820190508181036000830152611eda81611e9e565b9050919050565b7f4964656e746963616c2061646472657373657300000000000000000000000000600082015250565b6000611f1760138361180f565b9150611f2282611ee1565b602082019050919050565b60006020820190508181036000830152611f4681611f0a565b9050919050565b7f5a65726f20616464726573730000000000000000000000000000000000000000600082015250565b6000611f83600c8361180f565b9150611f8e82611f4d565b602082019050919050565b60006020820190508181036000830152611fb281611f76565b905091905056fea2646970667358221220472ec64c004d0b1f4ca9c3cfa58c4166463b8b725c56180c9588d46f9daa3ab964736f6c634300081c0033",
  "linkReferences": {},
  "deployedLinkReferences": {}
}