{
  "_format": "hh-sol-artifact-1",
  "contractName": "UpgradableContractV1",
  "sourceName": "contracts/UpgradableContractV1.sol",
  "abi": [
    {
      "inputs": [],
      "stateMutability": "nonpayable",
      "type": "constructor"
    },
    {
      "inputs": [
        {
          "internalType": "address",
          "name": "target",
          "type": "address"
        }
      ],
      "name": "AddressEmptyCode",
      "type": "error"
    },
    {
      "inputs": [
        {
          "internalType": "address",
          "name": "implementation",
          "type": "address"
        }
      ],
      "name": "ERC1967InvalidImplementation",
      "type": "error"
    },
    {
      "inputs": [],
      "name": "ERC1967NonPayable",
      "type": "error"
    },
    {
      "inputs": [],
      "name": "FailedCall",
      "type": "error"
    },
    {
      "inputs": [],
      "name": "InvalidInitialization",
      "type": "error"
    },
    {
      "inputs": [],
      "name": "NotInitializing",
      "type": "error"
    },
    {
      "inputs": [
        {
          "internalType": "address",
          "name": "owner",
          "type": "address"
        }
      ],
      "name": "OwnableInvalidOwner",
      "type": "error"
    },
    {
      "inputs": [
        {
          "internalType": "address",
          "name": "account",
          "type": "address"
        }
      ],
      "name": "OwnableUnauthorizedAccount",
      "type": "error"
    },
    {
      "inputs": [],
      "name": "UUPSUnauthorizedCallContext",
      "type": "error"
    },
    {
      "inputs": [
        {
          "internalType": "bytes32",
          "name": "slot",
          "type": "bytes32"
        }
      ],
      "name": "UUPSUnsupportedProxiableUUID",
      "type": "error"
    },
    {
      "anonymous": false,
      "inputs": [
        {
          "indexed": false,
          "internalType": "uint64",
          "name": "version",
          "type": "uint64"
        }
      ],
      "name": "Initialized",
      "type": "event"
    },
    {
      "anonymous": false,
      "inputs": [
        {
          "indexed": true,
          "internalType": "address",
          "name": "previousOwner",
          "type": "address"
        },
        {
          "indexed": true,
          "internalType": "address",
          "name": "newOwner",
          "type": "address"
        }
      ],
      "name": "OwnershipTransferred",
      "type": "event"
    },
    {
      "anonymous": false,
      "inputs": [
        {
          "indexed": true,
          "internalType": "address",
          "name": "implementation",
          "type": "address"
        }
      ],
      "name": "Upgraded",
      "type": "event"
    },
    {
      "inputs": [],
      "name": "UPGRADE_INTERFACE_VERSION",
      "outputs": [
        {
          "internalType": "string",
          "name": "",
          "type": "string"
        }
      ],
      "stateMutability": "view",
      "type": "function"
    },
    {
      "inputs": [
        {
          "internalType": "string",
          "name": "_name",
          "type": "string"
        },
        {
          "internalType": "uint256",
          "name": "_initialValue",
          "type": "uint256"
        }
      ],
      "name": "initialize",
      "outputs": [],
      "stateMutability": "nonpayable",
      "type": "function"
    },
    {
      "inputs": [],
      "name": "name",
      "outputs": [
        {
          "internalType": "string",
          "name": "",
          "type": "string"
        }
      ],
      "stateMutability": "view",
      "type": "function"
    },
    {
      "inputs": [],
      "name": "owner",
      "outputs": [
        {
          "internalType": "address",
          "name": "",
          "type": "address"
        }
      ],
      "stateMutability": "view",
      "type": "function"
    },
    {
      "inputs": [],
      "name": "proxiableUUID",
      "outputs": [
        {
          "internalType": "bytes32",
          "name": "",
          "type": "bytes32"
        }
      ],
      "stateMutability": "view",
      "type": "function"
    },
    {
      "inputs": [],
      "name": "renounceOwnership",
      "outputs": [],
      "stateMutability": "nonpayable",
      "type": "function"
    },
    {
      "inputs": [
        {
          "internalType": "string",
          "name": "_name",
          "type": "string"
        }
      ],
      "name": "setName",
      "outputs": [],
      "stateMutability": "nonpayable",
      "type": "function"
    },
    {
      "inputs": [
        {
          "internalType": "uint256",
          "name": "_value",
          "type": "uint256"
        }
      ],
      "name": "setValue",
      "outputs": [],
      "stateMutability": "nonpayable",
      "type": "function"
    },
    {
      "inputs": [
        {
          "internalType": "address",
          "name": "newOwner",
          "type": "address"
        }
      ],
      "name": "transferOwnership",
      "outputs": [],
      "stateMutability": "nonpayable",
      "type": "function"
    },
    {
      "inputs": [
        {
          "internalType": "address",
          "name": "newImplementation",
          "type": "address"
        },
        {
          "internalType": "bytes",
          "name": "data",
          "type": "bytes"
        }
      ],
      "name": "upgradeToAndCall",
      "outputs": [],
      "stateMutability": "payable",
      "type": "function"
    },
    {
      "inputs": [],
      "name": "value",
      "outputs": [
        {
          "internalType": "uint256",
          "name": "",
          "type": "uint256"
        }
      ],
      "stateMutability": "view",
      "type": "function"
    }
  ],
  "bytecode": "0x60a06040523060805234801561001457600080fd5b5061001d610022565b6100d4565b7ff0c57e16840df040f15088dc2f81fe391c3923bec73e23a9662efc9c229c6a00805468010000000000000000900460ff16156100725760405163f92ee8a960e01b815260040160405180910390fd5b80546001600160401b03908116146100d15780546001600160401b0319166001600160401b0390811782556040519081527fc7f505b2f371ae2175ee4913f4499e1f2633a7b5936321eed1cdaeb6115181d29060200160405180910390a15b50565b608051610d586100fd60003960008181610492015281816104bb01526106010152610d586000f3fe60806040526004361061009c5760003560e01c8063715018a611610064578063715018a61461013a5780638beaf7d71461014f5780638da5cb5b1461016f578063ad3cb1cc146101b6578063c47f0027146101e7578063f2fde38b1461020757600080fd5b806306fdde03146100a15780633fa4f245146100cc5780634f1ef286146100f057806352d1902d14610105578063552410771461011a575b600080fd5b3480156100ad57600080fd5b506100b6610227565b6040516100c39190610970565b60405180910390f35b3480156100d857600080fd5b506100e260005481565b6040519081526020016100c3565b6101036100fe366004610a4b565b6102b5565b005b34801561011157600080fd5b506100e26102d4565b34801561012657600080fd5b50610103610135366004610aad565b600055565b34801561014657600080fd5b506101036102f1565b34801561015b57600080fd5b5061010361016a366004610ae6565b610305565b34801561017b57600080fd5b507f9016d09d72d40fdae2fd8ceac6b6234c7706214fd39c1cd1e609a0528c199300546040516001600160a01b0390911681526020016100c3565b3480156101c257600080fd5b506100b6604051806040016040528060058152602001640352e302e360dc1b81525081565b3480156101f357600080fd5b50610103610202366004610b2b565b610430565b34801561021357600080fd5b50610103610222366004610b68565b610444565b6001805461023490610b83565b80601f016020809104026020016040519081016040528092919081815260200182805461026090610b83565b80156102ad5780601f10610282576101008083540402835291602001916102ad565b820191906000526020600020905b81548152906001019060200180831161029057829003601f168201915b505050505081565b6102bd610487565b6102c68261052c565b6102d08282610534565b5050565b60006102de6105f6565b50600080516020610d0383398151915290565b6102f961063f565b610303600061069a565b565b7ff0c57e16840df040f15088dc2f81fe391c3923bec73e23a9662efc9c229c6a008054600160401b810460ff16159067ffffffffffffffff1660008115801561034b5750825b905060008267ffffffffffffffff1660011480156103685750303b155b905081158015610376575080155b156103945760405163f92ee8a960e01b815260040160405180910390fd5b845467ffffffffffffffff1916600117855583156103be57845460ff60401b1916600160401b1785555b6103c73361070b565b6103cf61071c565b60016103db8882610c0d565b506000869055831561042757845460ff60401b19168555604051600181527fc7f505b2f371ae2175ee4913f4499e1f2633a7b5936321eed1cdaeb6115181d29060200160405180910390a15b50505050505050565b61043861063f565b60016102d08282610c0d565b61044c61063f565b6001600160a01b03811661047b57604051631e4fbdf760e01b8152600060048201526024015b60405180910390fd5b6104848161069a565b50565b306001600160a01b037f000000000000000000000000000000000000000000000000000000000000000016148061050e57507f00000000000000000000000000000000000000000000000000000000000000006001600160a01b0316610502600080516020610d03833981519152546001600160a01b031690565b6001600160a01b031614155b156103035760405163703e46dd60e11b815260040160405180910390fd5b61048461063f565b816001600160a01b03166352d1902d6040518163ffffffff1660e01b8152600401602060405180830381865afa92505050801561058e575060408051601f3d908101601f1916820190925261058b91810190610ccd565b60015b6105b657604051634c9c8ce360e01b81526001600160a01b0383166004820152602401610472565b600080516020610d0383398151915281146105e757604051632a87526960e21b815260048101829052602401610472565b6105f18383610724565b505050565b306001600160a01b037f000000000000000000000000000000000000000000000000000000000000000016146103035760405163703e46dd60e11b815260040160405180910390fd5b336106717f9016d09d72d40fdae2fd8ceac6b6234c7706214fd39c1cd1e609a0528c199300546001600160a01b031690565b6001600160a01b0316146103035760405163118cdaa760e01b8152336004820152602401610472565b7f9016d09d72d40fdae2fd8ceac6b6234c7706214fd39c1cd1e609a0528c19930080546001600160a01b031981166001600160a01b03848116918217845560405192169182907f8be0079c531659141344cd1fd0a4f28419497f9722a3daafe3b4186f6b6457e090600090a3505050565b61071361077a565b610484816107c3565b61030361077a565b61072d826107cb565b6040516001600160a01b038316907fbc7cd75a20ee27fd9adebab32041f755214dbc6bffa90cc0225b39da2e5c2d3b90600090a2805115610772576105f18282610830565b6102d06108a6565b7ff0c57e16840df040f15088dc2f81fe391c3923bec73e23a9662efc9c229c6a0054600160401b900460ff1661030357604051631afcd79f60e31b815260040160405180910390fd5b61044c61077a565b806001600160a01b03163b60000361080157604051634c9c8ce360e01b81526001600160a01b0382166004820152602401610472565b600080516020610d0383398151915280546001600160a01b0319166001600160a01b0392909216919091179055565b6060600080846001600160a01b03168460405161084d9190610ce6565b600060405180830381855af49150503d8060008114610888576040519150601f19603f3d011682016040523d82523d6000602084013e61088d565b606091505b509150915061089d8583836108c5565b95945050505050565b34156103035760405163b398979f60e01b815260040160405180910390fd5b6060826108da576108d582610924565b61091d565b81511580156108f157506001600160a01b0384163b155b1561091a57604051639996b31560e01b81526001600160a01b0385166004820152602401610472565b50805b9392505050565b80511561093357805160208201fd5b60405163d6bda27560e01b815260040160405180910390fd5b60005b8381101561096757818101518382015260200161094f565b50506000910152565b602081526000825180602084015261098f81604085016020870161094c565b601f01601f19169190910160400192915050565b80356001600160a01b03811681146109ba57600080fd5b919050565b634e487b7160e01b600052604160045260246000fd5b600067ffffffffffffffff808411156109f0576109f06109bf565b604051601f8501601f19908116603f01168101908282118183101715610a1857610a186109bf565b81604052809350858152868686011115610a3157600080fd5b858560208301376000602087830101525050509392505050565b60008060408385031215610a5e57600080fd5b610a67836109a3565b9150602083013567ffffffffffffffff811115610a8357600080fd5b8301601f81018513610a9457600080fd5b610aa3858235602084016109d5565b9150509250929050565b600060208284031215610abf57600080fd5b5035919050565b600082601f830112610ad757600080fd5b61091d838335602085016109d5565b60008060408385031215610af957600080fd5b823567ffffffffffffffff811115610b1057600080fd5b610b1c85828601610ac6565b95602094909401359450505050565b600060208284031215610b3d57600080fd5b813567ffffffffffffffff811115610b5457600080fd5b610b6084828501610ac6565b949350505050565b600060208284031215610b7a57600080fd5b61091d826109a3565b600181811c90821680610b9757607f821691505b602082108103610bb757634e487b7160e01b600052602260045260246000fd5b50919050565b601f8211156105f1576000816000526020600020601f850160051c81016020861015610be65750805b601f850160051c820191505b81811015610c0557828155600101610bf2565b505050505050565b815167ffffffffffffffff811115610c2757610c276109bf565b610c3b81610c358454610b83565b84610bbd565b602080601f831160018114610c705760008415610c585750858301515b600019600386901b1c1916600185901b178555610c05565b600085815260208120601f198616915b82811015610c9f57888601518255948401946001909101908401610c80565b5085821015610cbd5787850151600019600388901b60f8161c191681555b5050505050600190811b01905550565b600060208284031215610cdf57600080fd5b5051919050565b60008251610cf881846020870161094c565b919091019291505056fe360894a13ba1a3210667c828492db98dca3e2076cc3735a920a3ca505d382bbca2646970667358221220aef5fa922ae2e5a8ce69959ebb1236297e0f63458e22b50efadaf326655318cb64736f6c63430008160033",
  "linkReferences": {},
  "deployedLinkReferences": {}
}