{
  "_format": "hh-sol-artifact-1",
  "contractName": "MyContractV1",
  "sourceName": "contracts/MyContractV1.sol",
  "abi": [
    {
      "inputs": [],
      "stateMutability": "nonpayable",
      "type": "constructor"
    },
    {
      "inputs": [
        {
          "internalType": "address",
          "name": "target",
          "type": "address"
        }
      ],
      "name": "AddressEmptyCode",
      "type": "error"
    },
    {
      "inputs": [
        {
          "internalType": "address",
          "name": "implementation",
          "type": "address"
        }
      ],
      "name": "ERC1967InvalidImplementation",
      "type": "error"
    },
    {
      "inputs": [],
      "name": "ERC1967NonPayable",
      "type": "error"
    },
    {
      "inputs": [],
      "name": "FailedCall",
      "type": "error"
    },
    {
      "inputs": [],
      "name": "InvalidInitialization",
      "type": "error"
    },
    {
      "inputs": [],
      "name": "NotInitializing",
      "type": "error"
    },
    {
      "inputs": [
        {
          "internalType": "address",
          "name": "owner",
          "type": "address"
        }
      ],
      "name": "OwnableInvalidOwner",
      "type": "error"
    },
    {
      "inputs": [
        {
          "internalType": "address",
          "name": "account",
          "type": "address"
        }
      ],
      "name": "OwnableUnauthorizedAccount",
      "type": "error"
    },
    {
      "inputs": [],
      "name": "UUPSUnauthorizedCallContext",
      "type": "error"
    },
    {
      "inputs": [
        {
          "internalType": "bytes32",
          "name": "slot",
          "type": "bytes32"
        }
      ],
      "name": "UUPSUnsupportedProxiableUUID",
      "type": "error"
    },
    {
      "anonymous": false,
      "inputs": [
        {
          "indexed": false,
          "internalType": "uint64",
          "name": "version",
          "type": "uint64"
        }
      ],
      "name": "Initialized",
      "type": "event"
    },
    {
      "anonymous": false,
      "inputs": [
        {
          "indexed": true,
          "internalType": "address",
          "name": "user",
          "type": "address"
        },
        {
          "indexed": false,
          "internalType": "string",
          "name": "message",
          "type": "string"
        }
      ],
      "name": "MessageSet",
      "type": "event"
    },
    {
      "anonymous": false,
      "inputs": [
        {
          "indexed": true,
          "internalType": "address",
          "name": "previousOwner",
          "type": "address"
        },
        {
          "indexed": true,
          "internalType": "address",
          "name": "newOwner",
          "type": "address"
        }
      ],
      "name": "OwnershipTransferred",
      "type": "event"
    },
    {
      "anonymous": false,
      "inputs": [
        {
          "indexed": true,
          "internalType": "address",
          "name": "implementation",
          "type": "address"
        }
      ],
      "name": "Upgraded",
      "type": "event"
    },
    {
      "anonymous": false,
      "inputs": [
        {
          "indexed": false,
          "internalType": "uint256",
          "name": "oldValue",
          "type": "uint256"
        },
        {
          "indexed": false,
          "internalType": "uint256",
          "name": "newValue",
          "type": "uint256"
        }
      ],
      "name": "ValueUpdated",
      "type": "event"
    },
    {
      "inputs": [],
      "name": "UPGRADE_INTERFACE_VERSION",
      "outputs": [
        {
          "internalType": "string",
          "name": "",
          "type": "string"
        }
      ],
      "stateMutability": "view",
      "type": "function"
    },
    {
      "inputs": [],
      "name": "getMyMessage",
      "outputs": [
        {
          "internalType": "string",
          "name": "",
          "type": "string"
        }
      ],
      "stateMutability": "view",
      "type": "function"
    },
    {
      "inputs": [],
      "name": "initialize",
      "outputs": [],
      "stateMutability": "nonpayable",
      "type": "function"
    },
    {
      "inputs": [],
      "name": "myValue",
      "outputs": [
        {
          "internalType": "uint256",
          "name": "",
          "type": "uint256"
        }
      ],
      "stateMutability": "view",
      "type": "function"
    },
    {
      "inputs": [],
      "name": "owner",
      "outputs": [
        {
          "internalType": "address",
          "name": "",
          "type": "address"
        }
      ],
      "stateMutability": "view",
      "type": "function"
    },
    {
      "inputs": [],
      "name": "proxiableUUID",
      "outputs": [
        {
          "internalType": "bytes32",
          "name": "",
          "type": "bytes32"
        }
      ],
      "stateMutability": "view",
      "type": "function"
    },
    {
      "inputs": [],
      "name": "renounceOwnership",
      "outputs": [],
      "stateMutability": "nonpayable",
      "type": "function"
    },
    {
      "inputs": [
        {
          "internalType": "string",
          "name": "message",
          "type": "string"
        }
      ],
      "name": "setMessage",
      "outputs": [],
      "stateMutability": "nonpayable",
      "type": "function"
    },
    {
      "inputs": [
        {
          "internalType": "uint256",
          "name": "newValue",
          "type": "uint256"
        }
      ],
      "name": "setValue",
      "outputs": [],
      "stateMutability": "nonpayable",
      "type": "function"
    },
    {
      "inputs": [
        {
          "internalType": "address",
          "name": "newOwner",
          "type": "address"
        }
      ],
      "name": "transferOwnership",
      "outputs": [],
      "stateMutability": "nonpayable",
      "type": "function"
    },
    {
      "inputs": [
        {
          "internalType": "address",
          "name": "newImplementation",
          "type": "address"
        },
        {
          "internalType": "bytes",
          "name": "data",
          "type": "bytes"
        }
      ],
      "name": "upgradeToAndCall",
      "outputs": [],
      "stateMutability": "payable",
      "type": "function"
    },
    {
      "inputs": [
        {
          "internalType": "address",
          "name": "",
          "type": "address"
        }
      ],
      "name": "userMessages",
      "outputs": [
        {
          "internalType": "string",
          "name": "",
          "type": "string"
        }
      ],
      "stateMutability": "view",
      "type": "function"
    },
    {
      "inputs": [],
      "name": "version",
      "outputs": [
        {
          "internalType": "uint256",
          "name": "",
          "type": "uint256"
        }
      ],
      "stateMutability": "view",
      "type": "function"
    }
  ],
  "bytecode": "0x60a06040523060805234801561001457600080fd5b5061001d610022565b6100d4565b7ff0c57e16840df040f15088dc2f81fe391c3923bec73e23a9662efc9c229c6a00805468010000000000000000900460ff16156100725760405163f92ee8a960e01b815260040160405180910390fd5b80546001600160401b03908116146100d15780546001600160401b0319166001600160401b0390811782556040519081527fc7f505b2f371ae2175ee4913f4499e1f2633a7b5936321eed1cdaeb6115181d29060200160405180910390a15b50565b608051610ec46100fd600039600081816106140152818161063d01526107830152610ec46000f3fe6080604052600436106100c25760003560e01c80636cd947ee1161007f5780638129fc1c116100595780638129fc1c146101c75780638da5cb5b146101dc578063ad3cb1cc14610223578063f2fde38b1461025457600080fd5b80636cd947ee14610170578063715018a61461019d5780637bcb8167146101b257600080fd5b8063368b8772146100c757806347f1aae7146100e95780634f1ef2861461011257806352d1902d1461012557806354fd4d501461013a5780635524107714610150575b600080fd5b3480156100d357600080fd5b506100e76100e2366004610ace565b610274565b005b3480156100f557600080fd5b506100ff60015481565b6040519081526020015b60405180910390f35b6100e7610120366004610b74565b6102d6565b34801561013157600080fd5b506100ff6102f5565b34801561014657600080fd5b506100ff60005481565b34801561015c57600080fd5b506100e761016b366004610c3e565b610312565b34801561017c57600080fd5b5061019061018b366004610c57565b610357565b6040516101099190610c96565b3480156101a957600080fd5b506100e76103f1565b3480156101be57600080fd5b50610190610405565b3480156101d357600080fd5b506100e76104a6565b3480156101e857600080fd5b507f9016d09d72d40fdae2fd8ceac6b6234c7706214fd39c1cd1e609a0528c199300546040516001600160a01b039091168152602001610109565b34801561022f57600080fd5b50610190604051806040016040528060058152602001640352e302e360dc1b81525081565b34801561026057600080fd5b506100e761026f366004610c57565b6105c6565b33600090815260026020526040902061028e828483610d4a565b50336001600160a01b03167f93fae8d45f984617bf4db97b9e45b32ce771ddcb02cf1ef852199d13af04a3e283836040516102ca929190610e0a565b60405180910390a25050565b6102de610609565b6102e7826106ae565b6102f182826106b6565b5050565b60006102ff610778565b50600080516020610e6f83398151915290565b600180549082905560408051828152602081018490527f253ac2c290fb3c37b20cfd60899ed86c0c8313905edc8ca53ec8d2b69d9919ad910160405180910390a15050565b6002602052600090815260409020805461037090610cc9565b80601f016020809104026020016040519081016040528092919081815260200182805461039c90610cc9565b80156103e95780601f106103be576101008083540402835291602001916103e9565b820191906000526020600020905b8154815290600101906020018083116103cc57829003601f168201915b505050505081565b6103f96107c1565b610403600061081c565b565b33600090815260026020526040902080546060919061042390610cc9565b80601f016020809104026020016040519081016040528092919081815260200182805461044f90610cc9565b801561049c5780601f106104715761010080835404028352916020019161049c565b820191906000526020600020905b81548152906001019060200180831161047f57829003601f168201915b5050505050905090565b7ff0c57e16840df040f15088dc2f81fe391c3923bec73e23a9662efc9c229c6a008054600160401b810460ff16159067ffffffffffffffff166000811580156104ec5750825b905060008267ffffffffffffffff1660011480156105095750303b155b905081158015610517575080155b156105355760405163f92ee8a960e01b815260040160405180910390fd5b845467ffffffffffffffff19166001178555831561055f57845460ff60401b1916600160401b1785555b6105683361088d565b61057061089e565b60016000818155905583156105bf57845460ff60401b19168555604051600181527fc7f505b2f371ae2175ee4913f4499e1f2633a7b5936321eed1cdaeb6115181d29060200160405180910390a15b5050505050565b6105ce6107c1565b6001600160a01b0381166105fd57604051631e4fbdf760e01b8152600060048201526024015b60405180910390fd5b6106068161081c565b50565b306001600160a01b037f000000000000000000000000000000000000000000000000000000000000000016148061069057507f00000000000000000000000000000000000000000000000000000000000000006001600160a01b0316610684600080516020610e6f833981519152546001600160a01b031690565b6001600160a01b031614155b156104035760405163703e46dd60e11b815260040160405180910390fd5b6106066107c1565b816001600160a01b03166352d1902d6040518163ffffffff1660e01b8152600401602060405180830381865afa925050508015610710575060408051601f3d908101601f1916820190925261070d91810190610e39565b60015b61073857604051634c9c8ce360e01b81526001600160a01b03831660048201526024016105f4565b600080516020610e6f833981519152811461076957604051632a87526960e21b8152600481018290526024016105f4565b61077383836108a6565b505050565b306001600160a01b037f000000000000000000000000000000000000000000000000000000000000000016146104035760405163703e46dd60e11b815260040160405180910390fd5b336107f37f9016d09d72d40fdae2fd8ceac6b6234c7706214fd39c1cd1e609a0528c199300546001600160a01b031690565b6001600160a01b0316146104035760405163118cdaa760e01b81523360048201526024016105f4565b7f9016d09d72d40fdae2fd8ceac6b6234c7706214fd39c1cd1e609a0528c19930080546001600160a01b031981166001600160a01b03848116918217845560405192169182907f8be0079c531659141344cd1fd0a4f28419497f9722a3daafe3b4186f6b6457e090600090a3505050565b6108956108fc565b61060681610945565b6104036108fc565b6108af8261094d565b6040516001600160a01b038316907fbc7cd75a20ee27fd9adebab32041f755214dbc6bffa90cc0225b39da2e5c2d3b90600090a28051156108f45761077382826109b2565b6102f1610a28565b7ff0c57e16840df040f15088dc2f81fe391c3923bec73e23a9662efc9c229c6a0054600160401b900460ff1661040357604051631afcd79f60e31b815260040160405180910390fd5b6105ce6108fc565b806001600160a01b03163b60000361098357604051634c9c8ce360e01b81526001600160a01b03821660048201526024016105f4565b600080516020610e6f83398151915280546001600160a01b0319166001600160a01b0392909216919091179055565b6060600080846001600160a01b0316846040516109cf9190610e52565b600060405180830381855af49150503d8060008114610a0a576040519150601f19603f3d011682016040523d82523d6000602084013e610a0f565b606091505b5091509150610a1f858383610a47565b95945050505050565b34156104035760405163b398979f60e01b815260040160405180910390fd5b606082610a5c57610a5782610aa6565b610a9f565b8151158015610a7357506001600160a01b0384163b155b15610a9c57604051639996b31560e01b81526001600160a01b03851660048201526024016105f4565b50805b9392505050565b805115610ab557805160208201fd5b60405163d6bda27560e01b815260040160405180910390fd5b60008060208385031215610ae157600080fd5b823567ffffffffffffffff811115610af857600080fd5b8301601f81018513610b0957600080fd5b803567ffffffffffffffff811115610b2057600080fd5b856020828401011115610b3257600080fd5b6020919091019590945092505050565b80356001600160a01b0381168114610b5957600080fd5b919050565b634e487b7160e01b600052604160045260246000fd5b60008060408385031215610b8757600080fd5b610b9083610b42565b9150602083013567ffffffffffffffff811115610bac57600080fd5b8301601f81018513610bbd57600080fd5b803567ffffffffffffffff811115610bd757610bd7610b5e565b604051601f8201601f19908116603f0116810167ffffffffffffffff81118282101715610c0657610c06610b5e565b604052818152828201602001871015610c1e57600080fd5b816020840160208301376000602083830101528093505050509250929050565b600060208284031215610c5057600080fd5b5035919050565b600060208284031215610c6957600080fd5b610a9f82610b42565b60005b83811015610c8d578181015183820152602001610c75565b50506000910152565b6020815260008251806020840152610cb5816040850160208701610c72565b601f01601f19169190910160400192915050565b600181811c90821680610cdd57607f821691505b602082108103610cfd57634e487b7160e01b600052602260045260246000fd5b50919050565b601f82111561077357806000526020600020601f840160051c81016020851015610d2a5750805b601f840160051c820191505b818110156105bf5760008155600101610d36565b67ffffffffffffffff831115610d6257610d62610b5e565b610d7683610d708354610cc9565b83610d03565b6000601f841160018114610daa5760008515610d925750838201355b600019600387901b1c1916600186901b1783556105bf565b600083815260209020601f19861690835b82811015610ddb5786850135825560209485019460019092019101610dbb565b5086821015610df85760001960f88860031b161c19848701351681555b505060018560011b0183555050505050565b60208152816020820152818360408301376000818301604090810191909152601f909201601f19160101919050565b600060208284031215610e4b57600080fd5b5051919050565b60008251610e64818460208701610c72565b919091019291505056fe360894a13ba1a3210667c828492db98dca3e2076cc3735a920a3ca505d382bbca2646970667358221220d7f4e8bdb493414e432eef674ffd4c87bc3e3241d8f46bef9264ce1fee5dcbd364736f6c634300081c0033",
  "linkReferences": {},
  "deployedLinkReferences": {}
}