{
  "_format": "hh-sol-artifact-1",
  "contractName": "MyContractV2",
  "sourceName": "contracts/MyContractV2.sol",
  "abi": [
    {
      "inputs": [],
      "stateMutability": "nonpayable",
      "type": "constructor"
    },
    {
      "inputs": [
        {
          "internalType": "address",
          "name": "target",
          "type": "address"
        }
      ],
      "name": "AddressEmptyCode",
      "type": "error"
    },
    {
      "inputs": [
        {
          "internalType": "address",
          "name": "implementation",
          "type": "address"
        }
      ],
      "name": "ERC1967InvalidImplementation",
      "type": "error"
    },
    {
      "inputs": [],
      "name": "ERC1967NonPayable",
      "type": "error"
    },
    {
      "inputs": [],
      "name": "FailedCall",
      "type": "error"
    },
    {
      "inputs": [],
      "name": "InvalidInitialization",
      "type": "error"
    },
    {
      "inputs": [],
      "name": "NotInitializing",
      "type": "error"
    },
    {
      "inputs": [
        {
          "internalType": "address",
          "name": "owner",
          "type": "address"
        }
      ],
      "name": "OwnableInvalidOwner",
      "type": "error"
    },
    {
      "inputs": [
        {
          "internalType": "address",
          "name": "account",
          "type": "address"
        }
      ],
      "name": "OwnableUnauthorizedAccount",
      "type": "error"
    },
    {
      "inputs": [],
      "name": "UUPSUnauthorizedCallContext",
      "type": "error"
    },
    {
      "inputs": [
        {
          "internalType": "bytes32",
          "name": "slot",
          "type": "bytes32"
        }
      ],
      "name": "UUPSUnsupportedProxiableUUID",
      "type": "error"
    },
    {
      "anonymous": false,
      "inputs": [
        {
          "indexed": false,
          "internalType": "uint256[]",
          "name": "values",
          "type": "uint256[]"
        }
      ],
      "name": "BatchValuesSet",
      "type": "event"
    },
    {
      "anonymous": false,
      "inputs": [
        {
          "indexed": false,
          "internalType": "uint256",
          "name": "newCounter",
          "type": "uint256"
        }
      ],
      "name": "CounterIncremented",
      "type": "event"
    },
    {
      "anonymous": false,
      "inputs": [
        {
          "indexed": false,
          "internalType": "uint64",
          "name": "version",
          "type": "uint64"
        }
      ],
      "name": "Initialized",
      "type": "event"
    },
    {
      "anonymous": false,
      "inputs": [
        {
          "indexed": true,
          "internalType": "address",
          "name": "user",
          "type": "address"
        },
        {
          "indexed": false,
          "internalType": "string",
          "name": "message",
          "type": "string"
        }
      ],
      "name": "MessageSet",
      "type": "event"
    },
    {
      "anonymous": false,
      "inputs": [
        {
          "indexed": true,
          "internalType": "address",
          "name": "previousOwner",
          "type": "address"
        },
        {
          "indexed": true,
          "internalType": "address",
          "name": "newOwner",
          "type": "address"
        }
      ],
      "name": "OwnershipTransferred",
      "type": "event"
    },
    {
      "anonymous": false,
      "inputs": [
        {
          "indexed": true,
          "internalType": "address",
          "name": "implementation",
          "type": "address"
        }
      ],
      "name": "Upgraded",
      "type": "event"
    },
    {
      "anonymous": false,
      "inputs": [
        {
          "indexed": false,
          "internalType": "uint256",
          "name": "oldValue",
          "type": "uint256"
        },
        {
          "indexed": false,
          "internalType": "uint256",
          "name": "newValue",
          "type": "uint256"
        }
      ],
      "name": "ValueUpdated",
      "type": "event"
    },
    {
      "inputs": [],
      "name": "UPGRADE_INTERFACE_VERSION",
      "outputs": [
        {
          "internalType": "string",
          "name": "",
          "type": "string"
        }
      ],
      "stateMutability": "view",
      "type": "function"
    },
    {
      "inputs": [],
      "name": "counter",
      "outputs": [
        {
          "internalType": "uint256",
          "name": "",
          "type": "uint256"
        }
      ],
      "stateMutability": "view",
      "type": "function"
    },
    {
      "inputs": [],
      "name": "getMyMessage",
      "outputs": [
        {
          "internalType": "string",
          "name": "",
          "type": "string"
        }
      ],
      "stateMutability": "view",
      "type": "function"
    },
    {
      "inputs": [
        {
          "internalType": "address",
          "name": "user",
          "type": "address"
        }
      ],
      "name": "getUserStats",
      "outputs": [
        {
          "internalType": "uint256",
          "name": "",
          "type": "uint256"
        }
      ],
      "stateMutability": "view",
      "type": "function"
    },
    {
      "inputs": [],
      "name": "incrementCounter",
      "outputs": [],
      "stateMutability": "nonpayable",
      "type": "function"
    },
    {
      "inputs": [],
      "name": "initialize",
      "outputs": [],
      "stateMutability": "nonpayable",
      "type": "function"
    },
    {
      "inputs": [],
      "name": "initializeV2",
      "outputs": [],
      "stateMutability": "nonpayable",
      "type": "function"
    },
    {
      "inputs": [],
      "name": "myValue",
      "outputs": [
        {
          "internalType": "uint256",
          "name": "",
          "type": "uint256"
        }
      ],
      "stateMutability": "view",
      "type": "function"
    },
    {
      "inputs": [],
      "name": "owner",
      "outputs": [
        {
          "internalType": "address",
          "name": "",
          "type": "address"
        }
      ],
      "stateMutability": "view",
      "type": "function"
    },
    {
      "inputs": [],
      "name": "proxiableUUID",
      "outputs": [
        {
          "internalType": "bytes32",
          "name": "",
          "type": "bytes32"
        }
      ],
      "stateMutability": "view",
      "type": "function"
    },
    {
      "inputs": [],
      "name": "renounceOwnership",
      "outputs": [],
      "stateMutability": "nonpayable",
      "type": "function"
    },
    {
      "inputs": [
        {
          "internalType": "string",
          "name": "message",
          "type": "string"
        }
      ],
      "name": "setMessage",
      "outputs": [],
      "stateMutability": "nonpayable",
      "type": "function"
    },
    {
      "inputs": [
        {
          "internalType": "uint256",
          "name": "newValue",
          "type": "uint256"
        }
      ],
      "name": "setValue",
      "outputs": [],
      "stateMutability": "nonpayable",
      "type": "function"
    },
    {
      "inputs": [
        {
          "internalType": "uint256[]",
          "name": "values",
          "type": "uint256[]"
        }
      ],
      "name": "setValueBatch",
      "outputs": [],
      "stateMutability": "nonpayable",
      "type": "function"
    },
    {
      "inputs": [
        {
          "internalType": "address",
          "name": "newOwner",
          "type": "address"
        }
      ],
      "name": "transferOwnership",
      "outputs": [],
      "stateMutability": "nonpayable",
      "type": "function"
    },
    {
      "inputs": [
        {
          "internalType": "address",
          "name": "newImplementation",
          "type": "address"
        },
        {
          "internalType": "bytes",
          "name": "data",
          "type": "bytes"
        }
      ],
      "name": "upgradeToAndCall",
      "outputs": [],
      "stateMutability": "payable",
      "type": "function"
    },
    {
      "inputs": [
        {
          "internalType": "address",
          "name": "",
          "type": "address"
        }
      ],
      "name": "userCallCount",
      "outputs": [
        {
          "internalType": "uint256",
          "name": "",
          "type": "uint256"
        }
      ],
      "stateMutability": "view",
      "type": "function"
    },
    {
      "inputs": [
        {
          "internalType": "address",
          "name": "",
          "type": "address"
        }
      ],
      "name": "userMessages",
      "outputs": [
        {
          "internalType": "string",
          "name": "",
          "type": "string"
        }
      ],
      "stateMutability": "view",
      "type": "function"
    },
    {
      "inputs": [],
      "name": "version",
      "outputs": [
        {
          "internalType": "uint256",
          "name": "",
          "type": "uint256"
        }
      ],
      "stateMutability": "view",
      "type": "function"
    }
  ],
  "bytecode": "0x60a06040523060805234801561001457600080fd5b5061001d610022565b6100d4565b7ff0c57e16840df040f15088dc2f81fe391c3923bec73e23a9662efc9c229c6a00805468010000000000000000900460ff16156100725760405163f92ee8a960e01b815260040160405180910390fd5b80546001600160401b03908116146100d15780546001600160401b0319166001600160401b0390811782556040519081527fc7f505b2f371ae2175ee4913f4499e1f2633a7b5936321eed1cdaeb6115181d29060200160405180910390a15b50565b6080516113276100fd6000396000818161095e015281816109870152610acd01526113276000f3fe6080604052600436106101145760003560e01c806361bc221a116100a05780638da5cb5b116100645780638da5cb5b146102a457806392636b38146102eb578063ad3cb1cc1461030b578063dbcaf5bb1461033c578063f2fde38b1461036957600080fd5b806361bc221a146102225780636cd947ee14610238578063715018a6146102655780637bcb81671461027a5780638129fc1c1461028f57600080fd5b806352d1902d116100e757806352d1902d146101ad57806354fd4d50146101c257806355241077146101d85780635b34b966146101f85780635cd8a76b1461020d57600080fd5b8063368b87721461011957806347f1aae71461013b5780634e43603a146101645780634f1ef2861461019a575b600080fd5b34801561012557600080fd5b50610139610134366004610e39565b610389565b005b34801561014757600080fd5b5061015160015481565b6040519081526020015b60405180910390f35b34801561017057600080fd5b5061015161017f366004610ec9565b6001600160a01b031660009081526004602052604090205490565b6101396101a8366004610efa565b61040b565b3480156101b957600080fd5b5061015161042a565b3480156101ce57600080fd5b5061015160005481565b3480156101e457600080fd5b506101396101f3366004610fc4565b610447565b34801561020457600080fd5b506101396104ad565b34801561021957600080fd5b5061013961051f565b34801561022e57600080fd5b5061015160035481565b34801561024457600080fd5b50610258610253366004610ec9565b6105da565b60405161015b9190611001565b34801561027157600080fd5b50610139610674565b34801561028657600080fd5b50610258610688565b34801561029b57600080fd5b50610139610729565b3480156102b057600080fd5b507f9016d09d72d40fdae2fd8ceac6b6234c7706214fd39c1cd1e609a0528c199300546040516001600160a01b03909116815260200161015b565b3480156102f757600080fd5b50610139610306366004611034565b610835565b34801561031757600080fd5b50610258604051806040016040528060058152602001640352e302e360dc1b81525081565b34801561034857600080fd5b50610151610357366004610ec9565b60046020526000908152604090205481565b34801561037557600080fd5b50610139610384366004610ec9565b610910565b3360009081526002602052604090206103a382848361111c565b503360009081526004602052604081208054916103bf836111f2565b9190505550336001600160a01b03167f93fae8d45f984617bf4db97b9e45b32ce771ddcb02cf1ef852199d13af04a3e283836040516103ff92919061120b565b60405180910390a25050565b610413610953565b61041c826109f8565b6104268282610a00565b5050565b6000610434610ac2565b506000805160206112d283398151915290565b600180549082905533600090815260046020526040812080549161046a836111f2565b909155505060408051828152602081018490527f253ac2c290fb3c37b20cfd60899ed86c0c8313905edc8ca53ec8d2b69d9919ad91015b60405180910390a15050565b600380549060006104bd836111f2565b90915550503360009081526004602052604081208054916104dd836111f2565b91905055507f3cf8b50771c17d723f2cb711ca7dadde485b222e13c84ba0730a14093fad6d5c60035460405161051591815260200190565b60405180910390a1565b6002600061052b610b0b565b8054909150600160401b900460ff16806105535750805467ffffffffffffffff808416911610155b156105715760405163f92ee8a960e01b815260040160405180910390fd5b805468ffffffffffffffffff191667ffffffffffffffff8316908117600160401b17825560026000908155600355815460ff60401b191682556040519081527fc7f505b2f371ae2175ee4913f4499e1f2633a7b5936321eed1cdaeb6115181d2906020016104a1565b600260205260009081526040902080546105f39061109b565b80601f016020809104026020016040519081016040528092919081815260200182805461061f9061109b565b801561066c5780601f106106415761010080835404028352916020019161066c565b820191906000526020600020905b81548152906001019060200180831161064f57829003601f168201915b505050505081565b61067c610b36565b6106866000610b91565b565b3360009081526002602052604090208054606091906106a69061109b565b80601f01602080910402602001604051908101604052809291908181526020018280546106d29061109b565b801561071f5780601f106106f45761010080835404028352916020019161071f565b820191906000526020600020905b81548152906001019060200180831161070257829003601f168201915b5050505050905090565b6000610733610b0b565b805490915060ff600160401b820416159067ffffffffffffffff1660008115801561075b5750825b905060008267ffffffffffffffff1660011480156107785750303b155b905081158015610786575080155b156107a45760405163f92ee8a960e01b815260040160405180910390fd5b845467ffffffffffffffff1916600117855583156107ce57845460ff60401b1916600160401b1785555b6107d733610c02565b6107df610c13565b600160008181559055831561082e57845460ff60401b19168555604051600181527fc7f505b2f371ae2175ee4913f4499e1f2633a7b5936321eed1cdaeb6115181d29060200160405180910390a15b5050505050565b6000805b8281101561086f578383828181106108535761085361123a565b90506020020135826108659190611250565b9150600101610839565b506001805490829055336000908152600460205260408120805491610893836111f2565b91905055507f95c69f0cdd719fc126b2feeed4ce9b66a46a16222e104bc873236dab48dd957e84846040516108c9929190611263565b60405180910390a160408051828152602081018490527f253ac2c290fb3c37b20cfd60899ed86c0c8313905edc8ca53ec8d2b69d9919ad910160405180910390a150505050565b610918610b36565b6001600160a01b03811661094757604051631e4fbdf760e01b8152600060048201526024015b60405180910390fd5b61095081610b91565b50565b306001600160a01b037f00000000000000000000000000000000000000000000000000000000000000001614806109da57507f00000000000000000000000000000000000000000000000000000000000000006001600160a01b03166109ce6000805160206112d2833981519152546001600160a01b031690565b6001600160a01b031614155b156106865760405163703e46dd60e11b815260040160405180910390fd5b610950610b36565b816001600160a01b03166352d1902d6040518163ffffffff1660e01b8152600401602060405180830381865afa925050508015610a5a575060408051601f3d908101601f19168201909252610a579181019061129c565b60015b610a8257604051634c9c8ce360e01b81526001600160a01b038316600482015260240161093e565b6000805160206112d28339815191528114610ab357604051632a87526960e21b81526004810182905260240161093e565b610abd8383610c1b565b505050565b306001600160a01b037f000000000000000000000000000000000000000000000000000000000000000016146106865760405163703e46dd60e11b815260040160405180910390fd5b6000807ff0c57e16840df040f15088dc2f81fe391c3923bec73e23a9662efc9c229c6a005b92915050565b33610b687f9016d09d72d40fdae2fd8ceac6b6234c7706214fd39c1cd1e609a0528c199300546001600160a01b031690565b6001600160a01b0316146106865760405163118cdaa760e01b815233600482015260240161093e565b7f9016d09d72d40fdae2fd8ceac6b6234c7706214fd39c1cd1e609a0528c19930080546001600160a01b031981166001600160a01b03848116918217845560405192169182907f8be0079c531659141344cd1fd0a4f28419497f9722a3daafe3b4186f6b6457e090600090a3505050565b610c0a610c71565b61095081610c96565b610686610c71565b610c2482610c9e565b6040516001600160a01b038316907fbc7cd75a20ee27fd9adebab32041f755214dbc6bffa90cc0225b39da2e5c2d3b90600090a2805115610c6957610abd8282610d03565b610426610d79565b610c79610d98565b61068657604051631afcd79f60e31b815260040160405180910390fd5b610918610c71565b806001600160a01b03163b600003610cd457604051634c9c8ce360e01b81526001600160a01b038216600482015260240161093e565b6000805160206112d283398151915280546001600160a01b0319166001600160a01b0392909216919091179055565b6060600080846001600160a01b031684604051610d2091906112b5565b600060405180830381855af49150503d8060008114610d5b576040519150601f19603f3d011682016040523d82523d6000602084013e610d60565b606091505b5091509150610d70858383610db2565b95945050505050565b34156106865760405163b398979f60e01b815260040160405180910390fd5b6000610da2610b0b565b54600160401b900460ff16919050565b606082610dc757610dc282610e11565b610e0a565b8151158015610dde57506001600160a01b0384163b155b15610e0757604051639996b31560e01b81526001600160a01b038516600482015260240161093e565b50805b9392505050565b805115610e2057805160208201fd5b60405163d6bda27560e01b815260040160405180910390fd5b60008060208385031215610e4c57600080fd5b823567ffffffffffffffff811115610e6357600080fd5b8301601f81018513610e7457600080fd5b803567ffffffffffffffff811115610e8b57600080fd5b856020828401011115610e9d57600080fd5b6020919091019590945092505050565b80356001600160a01b0381168114610ec457600080fd5b919050565b600060208284031215610edb57600080fd5b610e0a82610ead565b634e487b7160e01b600052604160045260246000fd5b60008060408385031215610f0d57600080fd5b610f1683610ead565b9150602083013567ffffffffffffffff811115610f3257600080fd5b8301601f81018513610f4357600080fd5b803567ffffffffffffffff811115610f5d57610f5d610ee4565b604051601f8201601f19908116603f0116810167ffffffffffffffff81118282101715610f8c57610f8c610ee4565b604052818152828201602001871015610fa457600080fd5b816020840160208301376000602083830101528093505050509250929050565b600060208284031215610fd657600080fd5b5035919050565b60005b83811015610ff8578181015183820152602001610fe0565b50506000910152565b6020815260008251806020840152611020816040850160208701610fdd565b601f01601f19169190910160400192915050565b6000806020838503121561104757600080fd5b823567ffffffffffffffff81111561105e57600080fd5b8301601f8101851361106f57600080fd5b803567ffffffffffffffff81111561108657600080fd5b8560208260051b8401011115610e9d57600080fd5b600181811c908216806110af57607f821691505b6020821081036110cf57634e487b7160e01b600052602260045260246000fd5b50919050565b601f821115610abd57806000526020600020601f840160051c810160208510156110fc5750805b601f840160051c820191505b8181101561082e5760008155600101611108565b67ffffffffffffffff83111561113457611134610ee4565b61114883611142835461109b565b836110d5565b6000601f84116001811461117c57600085156111645750838201355b600019600387901b1c1916600186901b17835561082e565b600083815260209020601f19861690835b828110156111ad578685013582556020948501946001909201910161118d565b50868210156111ca5760001960f88860031b161c19848701351681555b505060018560011b0183555050505050565b634e487b7160e01b600052601160045260246000fd5b600060018201611204576112046111dc565b5060010190565b60208152816020820152818360408301376000818301604090810191909152601f909201601f19160101919050565b634e487b7160e01b600052603260045260246000fd5b80820180821115610b3057610b306111dc565b6020808252810182905260006001600160fb1b0383111561128357600080fd5b8260051b80856040850137919091016040019392505050565b6000602082840312156112ae57600080fd5b5051919050565b600082516112c7818460208701610fdd565b919091019291505056fe360894a13ba1a3210667c828492db98dca3e2076cc3735a920a3ca505d382bbca26469706673582212205dff95aaaa8cc3aa21ee717bf926c648cc9c2781d37c6f053d0f9a83b22767a764736f6c634300081c0033",
  "linkReferences": {},
  "deployedLinkReferences": {}
}