{
  "_format": "hh-sol-artifact-1",
  "contractName": "MiniSwap",
  "sourceName": "contracts/MiniSwap.sol",
  "abi": [
    {
      "inputs": [
        {
          "internalType": "address",
          "name": "token",
          "type": "address"
        }
      ],
      "name": "SafeERC20FailedOperation",
      "type": "error"
    },
    {
      "inputs": [
        {
          "internalType": "address",
          "name": "tokenA",
          "type": "address"
        },
        {
          "internalType": "address",
          "name": "tokenB",
          "type": "address"
        },
        {
          "internalType": "uint256",
          "name": "amount",
          "type": "uint256"
        }
      ],
      "name": "addLiquidity",
      "outputs": [],
      "stateMutability": "nonpayable",
      "type": "function"
    },
    {
      "inputs": [
        {
          "internalType": "address",
          "name": "user",
          "type": "address"
        },
        {
          "internalType": "address",
          "name": "tokenA",
          "type": "address"
        },
        {
          "internalType": "address",
          "name": "tokenB",
          "type": "address"
        }
      ],
      "name": "getLiquidity",
      "outputs": [
        {
          "internalType": "uint256",
          "name": "",
          "type": "uint256"
        }
      ],
      "stateMutability": "view",
      "type": "function"
    },
    {
      "inputs": [
        {
          "internalType": "address",
          "name": "",
          "type": "address"
        },
        {
          "internalType": "address",
          "name": "",
          "type": "address"
        },
        {
          "internalType": "address",
          "name": "",
          "type": "address"
        }
      ],
      "name": "liquidity",
      "outputs": [
        {
          "internalType": "uint256",
          "name": "",
          "type": "uint256"
        }
      ],
      "stateMutability": "view",
      "type": "function"
    },
    {
      "inputs": [
        {
          "internalType": "address",
          "name": "tokenA",
          "type": "address"
        },
        {
          "internalType": "address",
          "name": "tokenB",
          "type": "address"
        },
        {
          "internalType": "uint256",
          "name": "amount",
          "type": "uint256"
        }
      ],
      "name": "removeLiquidity",
      "outputs": [],
      "stateMutability": "nonpayable",
      "type": "function"
    },
    {
      "inputs": [
        {
          "internalType": "address",
          "name": "tokenIn",
          "type": "address"
        },
        {
          "internalType": "address",
          "name": "tokenOut",
          "type": "address"
        },
        {
          "internalType": "uint256",
          "name": "amount",
          "type": "uint256"
        }
      ],
      "name": "swap",
      "outputs": [],
      "stateMutability": "nonpayable",
      "type": "function"
    }
  ],
  "bytecode": "0x608060405234801561001057600080fd5b50611011806100206000396000f3fe608060405234801561001057600080fd5b50600436106100575760003560e01c8063d67115971461005c578063d752fab21461008c578063df791e50146100a8578063e4a76726146100c4578063e5bd492f146100e0575b600080fd5b61007660048036038101906100719190610b45565b610110565b6040516100839190610bb1565b60405180910390f35b6100a660048036038101906100a19190610bf8565b610142565b005b6100c260048036038101906100bd9190610bf8565b61037a565b005b6100de60048036038101906100d99190610bf8565b61054a565b005b6100fa60048036038101906100f59190610b45565b61073c565b6040516101079190610bb1565b60405180910390f35b600060205282600052604060002060205281600052604060002060205280600052604060002060009250925050505481565b60008061014f8585610813565b91509150826000803373ffffffffffffffffffffffffffffffffffffffff1673ffffffffffffffffffffffffffffffffffffffff16815260200190815260200160002060008473ffffffffffffffffffffffffffffffffffffffff1673ffffffffffffffffffffffffffffffffffffffff16815260200190815260200160002060008373ffffffffffffffffffffffffffffffffffffffff1673ffffffffffffffffffffffffffffffffffffffff16815260200190815260200160002054101561024e576040517f08c379a000000000000000000000000000000000000000000000000000000000815260040161024590610ca8565b60405180910390fd5b826000803373ffffffffffffffffffffffffffffffffffffffff1673ffffffffffffffffffffffffffffffffffffffff16815260200190815260200160002060008473ffffffffffffffffffffffffffffffffffffffff1673ffffffffffffffffffffffffffffffffffffffff16815260200190815260200160002060008373ffffffffffffffffffffffffffffffffffffffff1673ffffffffffffffffffffffffffffffffffffffff16815260200190815260200160002060008282546103169190610cf7565b9250508190555061034833848473ffffffffffffffffffffffffffffffffffffffff1661093f9092919063ffffffff16565b61037333848373ffffffffffffffffffffffffffffffffffffffff1661093f9092919063ffffffff16565b5050505050565b8173ffffffffffffffffffffffffffffffffffffffff168373ffffffffffffffffffffffffffffffffffffffff16036103e8576040517f08c379a00000000000000000000000000000000000000000000000000000000081526004016103df90610d77565b60405180910390fd5b6000811161042b576040517f08c379a000000000000000000000000000000000000000000000000000000000815260040161042290610de3565b60405180910390fd5b60008273ffffffffffffffffffffffffffffffffffffffff166370a08231306040518263ffffffff1660e01b81526004016104669190610e12565b602060405180830381865afa158015610483573d6000803e3d6000fd5b505050506040513d601f19601f820116820180604052508101906104a79190610e42565b9050818110156104ec576040517f08c379a00000000000000000000000000000000000000000000000000000000081526004016104e390610ebb565b60405180910390fd5b6105193330848773ffffffffffffffffffffffffffffffffffffffff166109be909392919063ffffffff16565b61054433838573ffffffffffffffffffffffffffffffffffffffff1661093f9092919063ffffffff16565b50505050565b8173ffffffffffffffffffffffffffffffffffffffff168373ffffffffffffffffffffffffffffffffffffffff16036105b8576040517f08c379a00000000000000000000000000000000000000000000000000000000081526004016105af90610d77565b60405180910390fd5b600081116105fb576040517f08c379a00000000000000000000000000000000000000000000000000000000081526004016105f290610de3565b60405180910390fd5b6000806106088585610813565b915091506106393330858573ffffffffffffffffffffffffffffffffffffffff166109be909392919063ffffffff16565b6106663330858473ffffffffffffffffffffffffffffffffffffffff166109be909392919063ffffffff16565b826000803373ffffffffffffffffffffffffffffffffffffffff1673ffffffffffffffffffffffffffffffffffffffff16815260200190815260200160002060008473ffffffffffffffffffffffffffffffffffffffff1673ffffffffffffffffffffffffffffffffffffffff16815260200190815260200160002060008373ffffffffffffffffffffffffffffffffffffffff1673ffffffffffffffffffffffffffffffffffffffff168152602001908152602001600020600082825461072e9190610edb565b925050819055505050505050565b600080600061074b8585610813565b915091506000808773ffffffffffffffffffffffffffffffffffffffff1673ffffffffffffffffffffffffffffffffffffffff16815260200190815260200160002060008373ffffffffffffffffffffffffffffffffffffffff1673ffffffffffffffffffffffffffffffffffffffff16815260200190815260200160002060008273ffffffffffffffffffffffffffffffffffffffff1673ffffffffffffffffffffffffffffffffffffffff16815260200190815260200160002054925050509392505050565b6000808273ffffffffffffffffffffffffffffffffffffffff168473ffffffffffffffffffffffffffffffffffffffff1603610884576040517f08c379a000000000000000000000000000000000000000000000000000000000815260040161087b90610d77565b60405180910390fd5b8273ffffffffffffffffffffffffffffffffffffffff168473ffffffffffffffffffffffffffffffffffffffff16106108be5782846108c1565b83835b8092508193505050600073ffffffffffffffffffffffffffffffffffffffff168273ffffffffffffffffffffffffffffffffffffffff1603610938576040517f08c379a000000000000000000000000000000000000000000000000000000000815260040161092f90610f5b565b60405180910390fd5b9250929050565b6109b9838473ffffffffffffffffffffffffffffffffffffffff1663a9059cbb8585604051602401610972929190610f7b565b604051602081830303815290604052915060e01b6020820180517bffffffffffffffffffffffffffffffffffffffffffffffffffffffff8381831617835250505050610a40565b505050565b610a3a848573ffffffffffffffffffffffffffffffffffffffff166323b872dd8686866040516024016109f393929190610fa4565b604051602081830303815290604052915060e01b6020820180517bffffffffffffffffffffffffffffffffffffffffffffffffffffffff8381831617835250505050610a40565b50505050565b600080602060008451602086016000885af180610a63576040513d6000823e3d81fd5b3d925060005191505060008214610a7e576001811415610a9a565b60008473ffffffffffffffffffffffffffffffffffffffff163b145b15610adc57836040517f5274afe7000000000000000000000000000000000000000000000000000000008152600401610ad39190610e12565b60405180910390fd5b50505050565b600080fd5b600073ffffffffffffffffffffffffffffffffffffffff82169050919050565b6000610b1282610ae7565b9050919050565b610b2281610b07565b8114610b2d57600080fd5b50565b600081359050610b3f81610b19565b92915050565b600080600060608486031215610b5e57610b5d610ae2565b5b6000610b6c86828701610b30565b9350506020610b7d86828701610b30565b9250506040610b8e86828701610b30565b9150509250925092565b6000819050919050565b610bab81610b98565b82525050565b6000602082019050610bc66000830184610ba2565b92915050565b610bd581610b98565b8114610be057600080fd5b50565b600081359050610bf281610bcc565b92915050565b600080600060608486031215610c1157610c10610ae2565b5b6000610c1f86828701610b30565b9350506020610c3086828701610b30565b9250506040610c4186828701610be3565b9150509250925092565b600082825260208201905092915050565b7f496e73756666696369656e74206c697175696469747900000000000000000000600082015250565b6000610c92601683610c4b565b9150610c9d82610c5c565b602082019050919050565b60006020820190508181036000830152610cc181610c85565b9050919050565b7f4e487b7100000000000000000000000000000000000000000000000000000000600052601160045260246000fd5b6000610d0282610b98565b9150610d0d83610b98565b9250828203905081811115610d2557610d24610cc8565b5b92915050565b7f4964656e746963616c20746f6b656e7300000000000000000000000000000000600082015250565b6000610d61601083610c4b565b9150610d6c82610d2b565b602082019050919050565b60006020820190508181036000830152610d9081610d54565b9050919050565b7f5a65726f20616d6f756e74000000000000000000000000000000000000000000600082015250565b6000610dcd600b83610c4b565b9150610dd882610d97565b602082019050919050565b60006020820190508181036000830152610dfc81610dc0565b9050919050565b610e0c81610b07565b82525050565b6000602082019050610e276000830184610e03565b92915050565b600081519050610e3c81610bcc565b92915050565b600060208284031215610e5857610e57610ae2565b5b6000610e6684828501610e2d565b91505092915050565b7f496e73756666696369656e74206c697175696469747920666f72207377617000600082015250565b6000610ea5601f83610c4b565b9150610eb082610e6f565b602082019050919050565b60006020820190508181036000830152610ed481610e98565b9050919050565b6000610ee682610b98565b9150610ef183610b98565b9250828201905080821115610f0957610f08610cc8565b5b92915050565b7f5a65726f20616464726573730000000000000000000000000000000000000000600082015250565b6000610f45600c83610c4b565b9150610f5082610f0f565b602082019050919050565b60006020820190508181036000830152610f7481610f38565b9050919050565b6000604082019050610f906000830185610e03565b610f9d6020830184610ba2565b9392505050565b6000606082019050610fb96000830186610e03565b610fc66020830185610e03565b610fd36040830184610ba2565b94935050505056fea2646970667358221220ada8bdcfa694f543541859af6d4daa98e0b3796d972509ff9fdfa2df4f09d0ca64736f6c63430008180033",
  "linkReferences": {},
  "deployedLinkReferences": {}
}