{
  "_format": "hh-sol-artifact-1",
  "contractName": "MiniSwap",
  "sourceName": "contracts/miniSwap.sol",
  "abi": [
    {
      "inputs": [
        {
          "internalType": "address",
          "name": "token",
          "type": "address"
        }
      ],
      "name": "SafeERC20FailedOperation",
      "type": "error"
    },
    {
      "anonymous": false,
      "inputs": [
        {
          "indexed": true,
          "internalType": "address",
          "name": "tokenA",
          "type": "address"
        },
        {
          "indexed": true,
          "internalType": "address",
          "name": "tokenB",
          "type": "address"
        },
        {
          "indexed": true,
          "internalType": "address",
          "name": "user",
          "type": "address"
        },
        {
          "indexed": false,
          "internalType": "uint256",
          "name": "amountA",
          "type": "uint256"
        },
        {
          "indexed": false,
          "internalType": "uint256",
          "name": "amountB",
          "type": "uint256"
        }
      ],
      "name": "LiquidityAdded",
      "type": "event"
    },
    {
      "anonymous": false,
      "inputs": [
        {
          "indexed": true,
          "internalType": "address",
          "name": "tokenA",
          "type": "address"
        },
        {
          "indexed": true,
          "internalType": "address",
          "name": "tokenB",
          "type": "address"
        },
        {
          "indexed": true,
          "internalType": "address",
          "name": "user",
          "type": "address"
        },
        {
          "indexed": false,
          "internalType": "uint256",
          "name": "amountA",
          "type": "uint256"
        },
        {
          "indexed": false,
          "internalType": "uint256",
          "name": "amountB",
          "type": "uint256"
        },
        {
          "indexed": false,
          "internalType": "uint256",
          "name": "sharesRemoved",
          "type": "uint256"
        }
      ],
      "name": "LiquidityRemoved",
      "type": "event"
    },
    {
      "anonymous": false,
      "inputs": [
        {
          "indexed": true,
          "internalType": "address",
          "name": "tokenIn",
          "type": "address"
        },
        {
          "indexed": true,
          "internalType": "address",
          "name": "tokenOut",
          "type": "address"
        },
        {
          "indexed": true,
          "internalType": "address",
          "name": "user",
          "type": "address"
        },
        {
          "indexed": false,
          "internalType": "uint256",
          "name": "amountIn",
          "type": "uint256"
        },
        {
          "indexed": false,
          "internalType": "uint256",
          "name": "amountOut",
          "type": "uint256"
        }
      ],
      "name": "SwapExecuted",
      "type": "event"
    },
    {
      "inputs": [
        {
          "internalType": "address",
          "name": "tokenA",
          "type": "address"
        },
        {
          "internalType": "address",
          "name": "tokenB",
          "type": "address"
        },
        {
          "internalType": "uint256",
          "name": "amount",
          "type": "uint256"
        }
      ],
      "name": "addLiquidity",
      "outputs": [],
      "stateMutability": "nonpayable",
      "type": "function"
    },
    {
      "inputs": [
        {
          "internalType": "bytes32",
          "name": "",
          "type": "bytes32"
        }
      ],
      "name": "liquidityPools",
      "outputs": [
        {
          "internalType": "uint256",
          "name": "",
          "type": "uint256"
        }
      ],
      "stateMutability": "view",
      "type": "function"
    },
    {
      "inputs": [
        {
          "internalType": "address",
          "name": "tokenA",
          "type": "address"
        },
        {
          "internalType": "address",
          "name": "tokenB",
          "type": "address"
        },
        {
          "internalType": "uint256",
          "name": "sharesToRemove",
          "type": "uint256"
        }
      ],
      "name": "removeLiquidity",
      "outputs": [],
      "stateMutability": "nonpayable",
      "type": "function"
    },
    {
      "inputs": [
        {
          "internalType": "address",
          "name": "tokenIn",
          "type": "address"
        },
        {
          "internalType": "address",
          "name": "tokenOut",
          "type": "address"
        },
        {
          "internalType": "uint256",
          "name": "amount",
          "type": "uint256"
        }
      ],
      "name": "swap",
      "outputs": [],
      "stateMutability": "nonpayable",
      "type": "function"
    },
    {
      "inputs": [
        {
          "internalType": "bytes32",
          "name": "",
          "type": "bytes32"
        }
      ],
      "name": "totalLiquidityShares",
      "outputs": [
        {
          "internalType": "uint256",
          "name": "",
          "type": "uint256"
        }
      ],
      "stateMutability": "view",
      "type": "function"
    },
    {
      "inputs": [
        {
          "internalType": "bytes32",
          "name": "",
          "type": "bytes32"
        },
        {
          "internalType": "address",
          "name": "",
          "type": "address"
        }
      ],
      "name": "userLiquidity",
      "outputs": [
        {
          "internalType": "uint256",
          "name": "",
          "type": "uint256"
        }
      ],
      "stateMutability": "view",
      "type": "function"
    }
  ],
  "bytecode": "0x608060405234801561001057600080fd5b506109cf806100206000396000f3fe608060405234801561001057600080fd5b50600436106100625760003560e01c806385a6a93914610067578063cfedc64414610099578063d50600c0146100b9578063d752fab2146100e4578063df791e50146100f9578063e4a767261461010c575b600080fd5b610087610075366004610850565b60026020526000908152604090205481565b60405190815260200160405180910390f35b6100876100a7366004610850565b60006020819052908152604090205481565b6100876100c7366004610885565b600160209081526000928352604080842090915290825290205481565b6100f76100f23660046108b1565b61011f565b005b6100f76101073660046108b1565b61035e565b6100f761011a3660046108b1565b6104d7565b816001600160a01b0316836001600160a01b0316036101595760405162461bcd60e51b8152600401610150906108ed565b60405180910390fd5b600081116101b55760405162461bcd60e51b8152602060048201526024808201527f53686172657320616d6f756e74206d75737420626520677265617465722074686044820152630616e20360e41b6064820152608401610150565b60006101c184846106a5565b60008181526001602090815260408083203384529091529020549091508281101561022e5760405162461bcd60e51b815260206004820152601d60248201527f496e73756666696369656e74206c6971756964697479207368617265730000006044820152606401610150565b60008281526002602090815260408083205491839052822054909182610254838861093a565b61025e9190610951565b600086815260208190526040812080549293508392839290610281908490610973565b90915550506000868152600160209081526040808320338452909152812080548992906102af908490610973565b9091555050600086815260026020526040812080548992906102d2908490610973565b909155506102ec90506001600160a01b038a16338461073c565b6103006001600160a01b038916338361073c565b604080518381526020810183905290810188905233906001600160a01b038a811691908c16907fd765e08eef31c0983ecca03ecd166297ac485ecd5dd69e291c848f0a020333c19060600160405180910390a4505050505050505050565b816001600160a01b0316836001600160a01b03160361038f5760405162461bcd60e51b8152600401610150906108ed565b600081116103df5760405162461bcd60e51b815260206004820152601d60248201527f416d6f756e74206d7573742062652067726561746572207468616e20300000006044820152606401610150565b60006103eb84846106a5565b6000818152602081905260409020549091508061045a5760405162461bcd60e51b815260206004820152602760248201527f506f6f6c20646f6573206e6f74206578697374206f7220686173206e6f206c696044820152667175696469747960c81b6064820152608401610150565b826104706001600160a01b0387163330846107a0565b6104846001600160a01b038616338361073c565b604080518581526020810183905233916001600160a01b0388811692908a16917f764f0dc063c06f32d89a3f3af80c0db4be8a090901f589a478b447e0a51f09f1910160405180910390a4505050505050565b816001600160a01b0316836001600160a01b0316036105085760405162461bcd60e51b8152600401610150906108ed565b600081116105585760405162461bcd60e51b815260206004820152601d60248201527f416d6f756e74206d7573742062652067726561746572207468616e20300000006044820152606401610150565b600061056484846106a5565b905061057b6001600160a01b0385163330856107a0565b6105906001600160a01b0384163330856107a0565b60008181526002602052604081205481036105ac5750816105df565b6000828152602081815260408083205460029092529091205481906105d1908661093a565b6105db9190610951565b9150505b600082815260208190526040812080548592906105fd908490610986565b909155505060008281526001602090815260408083203384529091528120805483929061062b908490610986565b90915550506000828152600260205260408120805483929061064e908490610986565b9091555050604080518481526020810185905233916001600160a01b0387811692908916917fb5bf3f2c68363aa6e695c29010485bcfecb5439239c6b1306fdec5b26cb7c62e910160405180910390a45050505050565b6000816001600160a01b0316836001600160a01b03161015610708576040516bffffffffffffffffffffffff19606085811b8216602084015284901b1660348201526048015b604051602081830303815290604052805190602001209050610736565b6040516bffffffffffffffffffffffff19606084811b8216602084015285901b1660348201526048016106eb565b92915050565b6040516001600160a01b0383811660248301526044820183905261079b91859182169063a9059cbb906064015b604051602081830303815290604052915060e01b6020820180516001600160e01b0383818316178352505050506107df565b505050565b6040516001600160a01b0384811660248301528381166044830152606482018390526107d99186918216906323b872dd90608401610769565b50505050565b600080602060008451602086016000885af180610802576040513d6000823e3d81fd5b50506000513d9150811561081a578060011415610827565b6001600160a01b0384163b155b156107d957604051635274afe760e01b81526001600160a01b0385166004820152602401610150565b60006020828403121561086257600080fd5b5035919050565b80356001600160a01b038116811461088057600080fd5b919050565b6000806040838503121561089857600080fd5b823591506108a860208401610869565b90509250929050565b6000806000606084860312156108c657600080fd5b6108cf84610869565b92506108dd60208501610869565b9150604084013590509250925092565b60208082526018908201527f546f6b656e73206d75737420626520646966666572656e740000000000000000604082015260600190565b634e487b7160e01b600052601160045260246000fd5b808202811582820484141761073657610736610924565b60008261096e57634e487b7160e01b600052601260045260246000fd5b500490565b8181038181111561073657610736610924565b808201808211156107365761073661092456fea2646970667358221220cede97584f96f1f6849dbf7f9c6f56f8c1b568632f3bb8da65526fbb202328f264736f6c63430008140033",
  "linkReferences": {},
  "deployedLinkReferences": {}
}