{
  "_format": "hh-sol-artifact-1",
  "contractName": "UpgradableContractV2",
  "sourceName": "contracts/UpgradableContractV2.sol",
  "abi": [
    {
      "inputs": [],
      "stateMutability": "nonpayable",
      "type": "constructor"
    },
    {
      "inputs": [
        {
          "internalType": "address",
          "name": "target",
          "type": "address"
        }
      ],
      "name": "AddressEmptyCode",
      "type": "error"
    },
    {
      "inputs": [
        {
          "internalType": "address",
          "name": "implementation",
          "type": "address"
        }
      ],
      "name": "ERC1967InvalidImplementation",
      "type": "error"
    },
    {
      "inputs": [],
      "name": "ERC1967NonPayable",
      "type": "error"
    },
    {
      "inputs": [],
      "name": "FailedCall",
      "type": "error"
    },
    {
      "inputs": [],
      "name": "InvalidInitialization",
      "type": "error"
    },
    {
      "inputs": [],
      "name": "NotInitializing",
      "type": "error"
    },
    {
      "inputs": [
        {
          "internalType": "address",
          "name": "owner",
          "type": "address"
        }
      ],
      "name": "OwnableInvalidOwner",
      "type": "error"
    },
    {
      "inputs": [
        {
          "internalType": "address",
          "name": "account",
          "type": "address"
        }
      ],
      "name": "OwnableUnauthorizedAccount",
      "type": "error"
    },
    {
      "inputs": [],
      "name": "UUPSUnauthorizedCallContext",
      "type": "error"
    },
    {
      "inputs": [
        {
          "internalType": "bytes32",
          "name": "slot",
          "type": "bytes32"
        }
      ],
      "name": "UUPSUnsupportedProxiableUUID",
      "type": "error"
    },
    {
      "anonymous": false,
      "inputs": [
        {
          "indexed": false,
          "internalType": "uint64",
          "name": "version",
          "type": "uint64"
        }
      ],
      "name": "Initialized",
      "type": "event"
    },
    {
      "anonymous": false,
      "inputs": [
        {
          "indexed": true,
          "internalType": "address",
          "name": "previousOwner",
          "type": "address"
        },
        {
          "indexed": true,
          "internalType": "address",
          "name": "newOwner",
          "type": "address"
        }
      ],
      "name": "OwnershipTransferred",
      "type": "event"
    },
    {
      "anonymous": false,
      "inputs": [
        {
          "indexed": true,
          "internalType": "address",
          "name": "implementation",
          "type": "address"
        }
      ],
      "name": "Upgraded",
      "type": "event"
    },
    {
      "inputs": [],
      "name": "UPGRADE_INTERFACE_VERSION",
      "outputs": [
        {
          "internalType": "string",
          "name": "",
          "type": "string"
        }
      ],
      "stateMutability": "view",
      "type": "function"
    },
    {
      "inputs": [
        {
          "internalType": "string",
          "name": "_name",
          "type": "string"
        },
        {
          "internalType": "uint256",
          "name": "_value",
          "type": "uint256"
        }
      ],
      "name": "initialize",
      "outputs": [],
      "stateMutability": "nonpayable",
      "type": "function"
    },
    {
      "inputs": [],
      "name": "initializeV2",
      "outputs": [],
      "stateMutability": "nonpayable",
      "type": "function"
    },
    {
      "inputs": [],
      "name": "name",
      "outputs": [
        {
          "internalType": "string",
          "name": "",
          "type": "string"
        }
      ],
      "stateMutability": "view",
      "type": "function"
    },
    {
      "inputs": [],
      "name": "newFeatureEnabled",
      "outputs": [
        {
          "internalType": "bool",
          "name": "",
          "type": "bool"
        }
      ],
      "stateMutability": "view",
      "type": "function"
    },
    {
      "inputs": [],
      "name": "newValue",
      "outputs": [
        {
          "internalType": "uint256",
          "name": "",
          "type": "uint256"
        }
      ],
      "stateMutability": "view",
      "type": "function"
    },
    {
      "inputs": [],
      "name": "owner",
      "outputs": [
        {
          "internalType": "address",
          "name": "",
          "type": "address"
        }
      ],
      "stateMutability": "view",
      "type": "function"
    },
    {
      "inputs": [],
      "name": "proxiableUUID",
      "outputs": [
        {
          "internalType": "bytes32",
          "name": "",
          "type": "bytes32"
        }
      ],
      "stateMutability": "view",
      "type": "function"
    },
    {
      "inputs": [],
      "name": "renounceOwnership",
      "outputs": [],
      "stateMutability": "nonpayable",
      "type": "function"
    },
    {
      "inputs": [
        {
          "internalType": "string",
          "name": "_name",
          "type": "string"
        }
      ],
      "name": "setName",
      "outputs": [],
      "stateMutability": "nonpayable",
      "type": "function"
    },
    {
      "inputs": [
        {
          "internalType": "uint256",
          "name": "_newValue",
          "type": "uint256"
        }
      ],
      "name": "setNewValue",
      "outputs": [],
      "stateMutability": "nonpayable",
      "type": "function"
    },
    {
      "inputs": [
        {
          "internalType": "uint256",
          "name": "_value",
          "type": "uint256"
        }
      ],
      "name": "setValue",
      "outputs": [],
      "stateMutability": "nonpayable",
      "type": "function"
    },
    {
      "inputs": [
        {
          "internalType": "address",
          "name": "newOwner",
          "type": "address"
        }
      ],
      "name": "transferOwnership",
      "outputs": [],
      "stateMutability": "nonpayable",
      "type": "function"
    },
    {
      "inputs": [
        {
          "internalType": "address",
          "name": "newImplementation",
          "type": "address"
        },
        {
          "internalType": "bytes",
          "name": "data",
          "type": "bytes"
        }
      ],
      "name": "upgradeToAndCall",
      "outputs": [],
      "stateMutability": "payable",
      "type": "function"
    },
    {
      "inputs": [],
      "name": "value",
      "outputs": [
        {
          "internalType": "uint256",
          "name": "",
          "type": "uint256"
        }
      ],
      "stateMutability": "view",
      "type": "function"
    }
  ],
  "bytecode": "0x60a06040523060805234801561001457600080fd5b5061001d610022565b6100d4565b7ff0c57e16840df040f15088dc2f81fe391c3923bec73e23a9662efc9c229c6a00805468010000000000000000900460ff16156100725760405163f92ee8a960e01b815260040160405180910390fd5b80546001600160401b03908116146100d15780546001600160401b0319166001600160401b0390811782556040519081527fc7f505b2f371ae2175ee4913f4499e1f2633a7b5936321eed1cdaeb6115181d29060200160405180910390a15b50565b608051610efe6100fd600039600081816106380152818161066101526107a70152610efe6000f3fe6080604052600436106100e85760003560e01c8063715018a61161008a578063951c407711610059578063951c407714610257578063ad3cb1cc14610277578063c47f0027146102a8578063f2fde38b146102c857600080fd5b8063715018a6146101c55780637c65452c146101da5780638beaf7d7146101f05780638da5cb5b1461021057600080fd5b806352d1902d116100c657806352d1902d1461015157806355241077146101665780635cd8a76b146101865780635edbe7841461019b57600080fd5b806306fdde03146100ed5780633fa4f245146101185780634f1ef2861461013c575b600080fd5b3480156100f957600080fd5b506101026102e8565b60405161010f9190610b16565b60405180910390f35b34801561012457600080fd5b5061012e60005481565b60405190815260200161010f565b61014f61014a366004610bf1565b610376565b005b34801561015d57600080fd5b5061012e610395565b34801561017257600080fd5b5061014f610181366004610c53565b600055565b34801561019257600080fd5b5061014f6103b2565b3480156101a757600080fd5b506003546101b59060ff1681565b604051901515815260200161010f565b3480156101d157600080fd5b5061014f61048d565b3480156101e657600080fd5b5061012e60025481565b3480156101fc57600080fd5b5061014f61020b366004610c8c565b6104a1565b34801561021c57600080fd5b507f9016d09d72d40fdae2fd8ceac6b6234c7706214fd39c1cd1e609a0528c199300546040516001600160a01b03909116815260200161010f565b34801561026357600080fd5b5061014f610272366004610c53565b600255565b34801561028357600080fd5b50610102604051806040016040528060058152602001640352e302e360dc1b81525081565b3480156102b457600080fd5b5061014f6102c3366004610cd1565b6105d6565b3480156102d457600080fd5b5061014f6102e3366004610d0e565b6105ea565b600180546102f590610d29565b80601f016020809104026020016040519081016040528092919081815260200182805461032190610d29565b801561036e5780601f106103435761010080835404028352916020019161036e565b820191906000526020600020905b81548152906001019060200180831161035157829003601f168201915b505050505081565b61037e61062d565b610387826106d2565b61039182826106da565b5050565b600061039f61079c565b50600080516020610ea983398151915290565b7ff0c57e16840df040f15088dc2f81fe391c3923bec73e23a9662efc9c229c6a00805460029190600160401b900460ff16806103fc5750805467ffffffffffffffff808416911610155b1561041a5760405163f92ee8a960e01b815260040160405180910390fd5b805468ffffffffffffffffff191667ffffffffffffffff8316908117600160401b1782556003805460ff19166001179055815460ff60401b191682556040519081527fc7f505b2f371ae2175ee4913f4499e1f2633a7b5936321eed1cdaeb6115181d29060200160405180910390a15050565b6104956107e5565b61049f6000610840565b565b7ff0c57e16840df040f15088dc2f81fe391c3923bec73e23a9662efc9c229c6a008054600160401b810460ff16159067ffffffffffffffff166000811580156104e75750825b905060008267ffffffffffffffff1660011480156105045750303b155b905081158015610512575080155b156105305760405163f92ee8a960e01b815260040160405180910390fd5b845467ffffffffffffffff19166001178555831561055a57845460ff60401b1916600160401b1785555b610563336108b1565b61056b6108c2565b6000869055600161057c8882610db3565b506003805460ff1916905583156105cd57845460ff60401b19168555604051600181527fc7f505b2f371ae2175ee4913f4499e1f2633a7b5936321eed1cdaeb6115181d29060200160405180910390a15b50505050505050565b6105de6107e5565b60016103918282610db3565b6105f26107e5565b6001600160a01b03811661062157604051631e4fbdf760e01b8152600060048201526024015b60405180910390fd5b61062a81610840565b50565b306001600160a01b037f00000000000000000000000000000000000000000000000000000000000000001614806106b457507f00000000000000000000000000000000000000000000000000000000000000006001600160a01b03166106a8600080516020610ea9833981519152546001600160a01b031690565b6001600160a01b031614155b1561049f5760405163703e46dd60e11b815260040160405180910390fd5b61062a6107e5565b816001600160a01b03166352d1902d6040518163ffffffff1660e01b8152600401602060405180830381865afa925050508015610734575060408051601f3d908101601f1916820190925261073191810190610e73565b60015b61075c57604051634c9c8ce360e01b81526001600160a01b0383166004820152602401610618565b600080516020610ea9833981519152811461078d57604051632a87526960e21b815260048101829052602401610618565b61079783836108ca565b505050565b306001600160a01b037f0000000000000000000000000000000000000000000000000000000000000000161461049f5760405163703e46dd60e11b815260040160405180910390fd5b336108177f9016d09d72d40fdae2fd8ceac6b6234c7706214fd39c1cd1e609a0528c199300546001600160a01b031690565b6001600160a01b03161461049f5760405163118cdaa760e01b8152336004820152602401610618565b7f9016d09d72d40fdae2fd8ceac6b6234c7706214fd39c1cd1e609a0528c19930080546001600160a01b031981166001600160a01b03848116918217845560405192169182907f8be0079c531659141344cd1fd0a4f28419497f9722a3daafe3b4186f6b6457e090600090a3505050565b6108b9610920565b61062a81610969565b61049f610920565b6108d382610971565b6040516001600160a01b038316907fbc7cd75a20ee27fd9adebab32041f755214dbc6bffa90cc0225b39da2e5c2d3b90600090a28051156109185761079782826109d6565b610391610a4c565b7ff0c57e16840df040f15088dc2f81fe391c3923bec73e23a9662efc9c229c6a0054600160401b900460ff1661049f57604051631afcd79f60e31b815260040160405180910390fd5b6105f2610920565b806001600160a01b03163b6000036109a757604051634c9c8ce360e01b81526001600160a01b0382166004820152602401610618565b600080516020610ea983398151915280546001600160a01b0319166001600160a01b0392909216919091179055565b6060600080846001600160a01b0316846040516109f39190610e8c565b600060405180830381855af49150503d8060008114610a2e576040519150601f19603f3d011682016040523d82523d6000602084013e610a33565b606091505b5091509150610a43858383610a6b565b95945050505050565b341561049f5760405163b398979f60e01b815260040160405180910390fd5b606082610a8057610a7b82610aca565b610ac3565b8151158015610a9757506001600160a01b0384163b155b15610ac057604051639996b31560e01b81526001600160a01b0385166004820152602401610618565b50805b9392505050565b805115610ad957805160208201fd5b60405163d6bda27560e01b815260040160405180910390fd5b60005b83811015610b0d578181015183820152602001610af5565b50506000910152565b6020815260008251806020840152610b35816040850160208701610af2565b601f01601f19169190910160400192915050565b80356001600160a01b0381168114610b6057600080fd5b919050565b634e487b7160e01b600052604160045260246000fd5b600067ffffffffffffffff80841115610b9657610b96610b65565b604051601f8501601f19908116603f01168101908282118183101715610bbe57610bbe610b65565b81604052809350858152868686011115610bd757600080fd5b858560208301376000602087830101525050509392505050565b60008060408385031215610c0457600080fd5b610c0d83610b49565b9150602083013567ffffffffffffffff811115610c2957600080fd5b8301601f81018513610c3a57600080fd5b610c4985823560208401610b7b565b9150509250929050565b600060208284031215610c6557600080fd5b5035919050565b600082601f830112610c7d57600080fd5b610ac383833560208501610b7b565b60008060408385031215610c9f57600080fd5b823567ffffffffffffffff811115610cb657600080fd5b610cc285828601610c6c565b95602094909401359450505050565b600060208284031215610ce357600080fd5b813567ffffffffffffffff811115610cfa57600080fd5b610d0684828501610c6c565b949350505050565b600060208284031215610d2057600080fd5b610ac382610b49565b600181811c90821680610d3d57607f821691505b602082108103610d5d57634e487b7160e01b600052602260045260246000fd5b50919050565b601f821115610797576000816000526020600020601f850160051c81016020861015610d8c5750805b601f850160051c820191505b81811015610dab57828155600101610d98565b505050505050565b815167ffffffffffffffff811115610dcd57610dcd610b65565b610de181610ddb8454610d29565b84610d63565b602080601f831160018114610e165760008415610dfe5750858301515b600019600386901b1c1916600185901b178555610dab565b600085815260208120601f198616915b82811015610e4557888601518255948401946001909101908401610e26565b5085821015610e635787850151600019600388901b60f8161c191681555b5050505050600190811b01905550565b600060208284031215610e8557600080fd5b5051919050565b60008251610e9e818460208701610af2565b919091019291505056fe360894a13ba1a3210667c828492db98dca3e2076cc3735a920a3ca505d382bbca2646970667358221220fd35c06e17cb238ae39e81ecc84401e79c72fe49dcf9d6370a7dc1b3314a51e564736f6c63430008160033",
  "linkReferences": {},
  "deployedLinkReferences": {}
}