{
  "_format": "hh3-artifact-1",
  "contractName": "ERC1886",
  "sourceName": "contracts/ERC1886.sol",
  "abi": [
    {
      "inputs": [
        {
          "internalType": "string",
          "name": "_name",
          "type": "string"
        },
        {
          "internalType": "string",
          "name": "_symbol",
          "type": "string"
        }
      ],
      "stateMutability": "nonpayable",
      "type": "constructor"
    },
    {
      "anonymous": false,
      "inputs": [
        {
          "indexed": true,
          "internalType": "address",
          "name": "owner",
          "type": "address"
        },
        {
          "indexed": true,
          "internalType": "address",
          "name": "spender",
          "type": "address"
        },
        {
          "indexed": false,
          "internalType": "uint256",
          "name": "value",
          "type": "uint256"
        }
      ],
      "name": "Approval",
      "type": "event"
    },
    {
      "anonymous": false,
      "inputs": [
        {
          "indexed": true,
          "internalType": "address",
          "name": "from",
          "type": "address"
        },
        {
          "indexed": true,
          "internalType": "address",
          "name": "to",
          "type": "address"
        },
        {
          "indexed": false,
          "internalType": "uint256",
          "name": "value",
          "type": "uint256"
        }
      ],
      "name": "Transfer",
      "type": "event"
    },
    {
      "inputs": [
        {
          "internalType": "address",
          "name": "",
          "type": "address"
        },
        {
          "internalType": "address",
          "name": "",
          "type": "address"
        }
      ],
      "name": "allowance",
      "outputs": [
        {
          "internalType": "uint256",
          "name": "",
          "type": "uint256"
        }
      ],
      "stateMutability": "view",
      "type": "function"
    },
    {
      "inputs": [
        {
          "internalType": "address",
          "name": "_spender",
          "type": "address"
        },
        {
          "internalType": "uint256",
          "name": "_value",
          "type": "uint256"
        }
      ],
      "name": "approve",
      "outputs": [
        {
          "internalType": "bool",
          "name": "success",
          "type": "bool"
        }
      ],
      "stateMutability": "nonpayable",
      "type": "function"
    },
    {
      "inputs": [
        {
          "internalType": "address",
          "name": "",
          "type": "address"
        }
      ],
      "name": "balanceOf",
      "outputs": [
        {
          "internalType": "uint256",
          "name": "",
          "type": "uint256"
        }
      ],
      "stateMutability": "view",
      "type": "function"
    },
    {
      "inputs": [],
      "name": "decimals",
      "outputs": [
        {
          "internalType": "uint8",
          "name": "",
          "type": "uint8"
        }
      ],
      "stateMutability": "view",
      "type": "function"
    },
    {
      "inputs": [
        {
          "internalType": "uint256",
          "name": "amount",
          "type": "uint256"
        }
      ],
      "name": "mint",
      "outputs": [],
      "stateMutability": "nonpayable",
      "type": "function"
    },
    {
      "inputs": [],
      "name": "name",
      "outputs": [
        {
          "internalType": "string",
          "name": "",
          "type": "string"
        }
      ],
      "stateMutability": "view",
      "type": "function"
    },
    {
      "inputs": [],
      "name": "symbol",
      "outputs": [
        {
          "internalType": "string",
          "name": "",
          "type": "string"
        }
      ],
      "stateMutability": "view",
      "type": "function"
    },
    {
      "inputs": [],
      "name": "totalSupply",
      "outputs": [
        {
          "internalType": "uint256",
          "name": "",
          "type": "uint256"
        }
      ],
      "stateMutability": "view",
      "type": "function"
    },
    {
      "inputs": [
        {
          "internalType": "address",
          "name": "_to",
          "type": "address"
        },
        {
          "internalType": "uint256",
          "name": "_value",
          "type": "uint256"
        }
      ],
      "name": "transfer",
      "outputs": [
        {
          "internalType": "bool",
          "name": "success",
          "type": "bool"
        }
      ],
      "stateMutability": "nonpayable",
      "type": "function"
    },
    {
      "inputs": [
        {
          "internalType": "address",
          "name": "_from",
          "type": "address"
        },
        {
          "internalType": "address",
          "name": "_to",
          "type": "address"
        },
        {
          "internalType": "uint256",
          "name": "_value",
          "type": "uint256"
        }
      ],
      "name": "transferFrom",
      "outputs": [
        {
          "internalType": "bool",
          "name": "success",
          "type": "bool"
        }
      ],
      "stateMutability": "nonpayable",
      "type": "function"
    }
  ],
  "bytecode": "0x608060405234801561000f575f5ffd5b50604051610b17380380610b1783398101604081905261002e91610115565b5f61003983826101fe565b50600161004682826101fe565b50506002805460ff1916601217905550670de0b6b3a76400006003819055335f908152600460205260409020556102b8565b634e487b7160e01b5f52604160045260245ffd5b5f82601f83011261009b575f5ffd5b81516001600160401b038111156100b4576100b4610078565b604051601f8201601f19908116603f011681016001600160401b03811182821017156100e2576100e2610078565b6040528181528382016020018510156100f9575f5ffd5b8160208501602083015e5f918101602001919091529392505050565b5f5f60408385031215610126575f5ffd5b82516001600160401b0381111561013b575f5ffd5b6101478582860161008c565b602085015190935090506001600160401b03811115610164575f5ffd5b6101708582860161008c565b9150509250929050565b600181811c9082168061018e57607f821691505b6020821081036101ac57634e487b7160e01b5f52602260045260245ffd5b50919050565b601f8211156101f957805f5260205f20601f840160051c810160208510156101d75750805b601f840160051c820191505b818110156101f6575f81556001016101e3565b50505b505050565b81516001600160401b0381111561021757610217610078565b61022b81610225845461017a565b846101b2565b6020601f82116001811461025d575f83156102465750848201515b5f19600385901b1c1916600184901b1784556101f6565b5f84815260208120601f198516915b8281101561028c578785015182556020948501946001909201910161026c565b50848210156102a957868401515f19600387901b60f8161c191681555b50505050600190811b01905550565b610852806102c55f395ff3fe608060405234801561000f575f5ffd5b506004361061009b575f3560e01c806370a082311161006357806370a082311461012957806395d89b4114610148578063a0712d6814610150578063a9059cbb14610165578063dd62ed3e14610178575f5ffd5b806306fdde031461009f578063095ea7b3146100bd57806318160ddd146100e057806323b872dd146100f7578063313ce5671461010a575b5f5ffd5b6100a76101a2565b6040516100b49190610650565b60405180910390f35b6100d06100cb3660046106a0565b61022d565b60405190151581526020016100b4565b6100e960035481565b6040519081526020016100b4565b6100d06101053660046106c8565b6102c2565b6002546101179060ff1681565b60405160ff90911681526020016100b4565b6100e9610137366004610702565b60046020525f908152604090205481565b6100a7610495565b61016361015e366004610722565b6104a2565b005b6100d06101733660046106a0565b610549565b6100e9610186366004610739565b600560209081525f928352604080842090915290825290205481565b5f80546101ae9061076a565b80601f01602080910402602001604051908101604052809291908181526020018280546101da9061076a565b80156102255780601f106101fc57610100808354040283529160200191610225565b820191905f5260205f20905b81548152906001019060200180831161020857829003601f168201915b505050505081565b5f6001600160a01b03831661025d5760405162461bcd60e51b8152600401610254906107a2565b60405180910390fd5b335f8181526005602090815260408083206001600160a01b03881680855290835292819020869055518581529192917f8c5be1e5ebec7d5bd14f71427d1e84f3dd0314c0f7b2291e5b200ac8c7c3b92591015b60405180910390a35060015b92915050565b6001600160a01b0383165f908152600460205260408120548211156103205760405162461bcd60e51b8152602060048201526014602482015273496e73756666696369656e742062616c616e636560601b6044820152606401610254565b6001600160a01b0383166103465760405162461bcd60e51b8152600401610254906107a2565b6001600160a01b0384165f9081526005602090815260408083203384529091529020548211156103ad5760405162461bcd60e51b8152602060048201526012602482015271105b1b1bddd85b98d948195e18d95959195960721b6044820152606401610254565b6001600160a01b0384165f90815260046020526040812080548492906103d49084906107df565b90915550506001600160a01b0383165f90815260046020526040812080548492906104009084906107f2565b90915550506001600160a01b0384165f908152600560209081526040808320338452909152812080548492906104379084906107df565b92505081905550826001600160a01b0316846001600160a01b03167fddf252ad1be2c89b69c2b068fc378daa952ba7f163c4a11628f55a4df523b3ef8460405161048391815260200190565b60405180910390a35060019392505050565b600180546101ae9061076a565b6104b481670de0b6b3a7640000610805565b60035f8282546104c491906107f2565b909155506104dc905081670de0b6b3a7640000610805565b335f90815260046020526040812080549091906104fa9084906107f2565b909155503390505f7fddf252ad1be2c89b69c2b068fc378daa952ba7f163c4a11628f55a4df523b3ef61053584670de0b6b3a7640000610805565b60405190815260200160405180910390a350565b335f9081526004602052604081205482111561059e5760405162461bcd60e51b8152602060048201526014602482015273496e73756666696369656e742062616c616e636560601b6044820152606401610254565b6001600160a01b0383166105c45760405162461bcd60e51b8152600401610254906107a2565b335f90815260046020526040812080548492906105e29084906107df565b90915550506001600160a01b0383165f908152600460205260408120805484929061060e9084906107f2565b90915550506040518281526001600160a01b0384169033907fddf252ad1be2c89b69c2b068fc378daa952ba7f163c4a11628f55a4df523b3ef906020016102b0565b602081525f82518060208401528060208501604085015e5f604082850101526040601f19601f83011684010191505092915050565b80356001600160a01b038116811461069b575f5ffd5b919050565b5f5f604083850312156106b1575f5ffd5b6106ba83610685565b946020939093013593505050565b5f5f5f606084860312156106da575f5ffd5b6106e384610685565b92506106f160208501610685565b929592945050506040919091013590565b5f60208284031215610712575f5ffd5b61071b82610685565b9392505050565b5f60208284031215610732575f5ffd5b5035919050565b5f5f6040838503121561074a575f5ffd5b61075383610685565b915061076160208401610685565b90509250929050565b600181811c9082168061077e57607f821691505b60208210810361079c57634e487b7160e01b5f52602260045260245ffd5b50919050565b6020808252600f908201526e496e76616c6964206164647265737360881b604082015260600190565b634e487b7160e01b5f52601160045260245ffd5b818103818111156102bc576102bc6107cb565b808201808211156102bc576102bc6107cb565b80820281158282048414176102bc576102bc6107cb56fea2646970667358221220b4ec4dd0a910e5c438f98612de723731931039dc293fd2001e6a0fa66db82cba64736f6c634300081c0033",
  "linkReferences": {},
  "deployedLinkReferences": {},
  "immutableReferences": {},
  "inputSourceName": "project/contracts/ERC1886.sol",
  "buildInfoId": "solc-0_8_28-bfcfd8387851aa3f3999d052454544021764f4d5"
}