{
  "_format": "hh3-artifact-1",
  "contractName": "ERC1589",
  "sourceName": "contracts/ERC1589.sol",
  "abi": [
    {
      "inputs": [
        {
          "internalType": "string",
          "name": "_name",
          "type": "string"
        },
        {
          "internalType": "string",
          "name": "_symbol",
          "type": "string"
        },
        {
          "internalType": "uint256",
          "name": "_initialSupply",
          "type": "uint256"
        }
      ],
      "stateMutability": "nonpayable",
      "type": "constructor"
    },
    {
      "anonymous": false,
      "inputs": [
        {
          "indexed": true,
          "internalType": "address",
          "name": "owner",
          "type": "address"
        },
        {
          "indexed": true,
          "internalType": "address",
          "name": "spender",
          "type": "address"
        },
        {
          "indexed": false,
          "internalType": "uint256",
          "name": "value",
          "type": "uint256"
        }
      ],
      "name": "Approval",
      "type": "event"
    },
    {
      "anonymous": false,
      "inputs": [
        {
          "indexed": true,
          "internalType": "address",
          "name": "from",
          "type": "address"
        },
        {
          "indexed": true,
          "internalType": "address",
          "name": "to",
          "type": "address"
        },
        {
          "indexed": false,
          "internalType": "uint256",
          "name": "value",
          "type": "uint256"
        }
      ],
      "name": "Transfer",
      "type": "event"
    },
    {
      "inputs": [
        {
          "internalType": "address",
          "name": "",
          "type": "address"
        },
        {
          "internalType": "address",
          "name": "",
          "type": "address"
        }
      ],
      "name": "allowance",
      "outputs": [
        {
          "internalType": "uint256",
          "name": "",
          "type": "uint256"
        }
      ],
      "stateMutability": "view",
      "type": "function"
    },
    {
      "inputs": [
        {
          "internalType": "address",
          "name": "_spender",
          "type": "address"
        },
        {
          "internalType": "uint256",
          "name": "_value",
          "type": "uint256"
        }
      ],
      "name": "approve",
      "outputs": [
        {
          "internalType": "bool",
          "name": "success",
          "type": "bool"
        }
      ],
      "stateMutability": "nonpayable",
      "type": "function"
    },
    {
      "inputs": [
        {
          "internalType": "address",
          "name": "",
          "type": "address"
        }
      ],
      "name": "balanceOf",
      "outputs": [
        {
          "internalType": "uint256",
          "name": "",
          "type": "uint256"
        }
      ],
      "stateMutability": "view",
      "type": "function"
    },
    {
      "inputs": [],
      "name": "decimals",
      "outputs": [
        {
          "internalType": "uint8",
          "name": "",
          "type": "uint8"
        }
      ],
      "stateMutability": "view",
      "type": "function"
    },
    {
      "inputs": [
        {
          "internalType": "uint256",
          "name": "amount",
          "type": "uint256"
        }
      ],
      "name": "mint",
      "outputs": [],
      "stateMutability": "nonpayable",
      "type": "function"
    },
    {
      "inputs": [],
      "name": "name",
      "outputs": [
        {
          "internalType": "string",
          "name": "",
          "type": "string"
        }
      ],
      "stateMutability": "view",
      "type": "function"
    },
    {
      "inputs": [],
      "name": "symbol",
      "outputs": [
        {
          "internalType": "string",
          "name": "",
          "type": "string"
        }
      ],
      "stateMutability": "view",
      "type": "function"
    },
    {
      "inputs": [],
      "name": "totalSupply",
      "outputs": [
        {
          "internalType": "uint256",
          "name": "",
          "type": "uint256"
        }
      ],
      "stateMutability": "view",
      "type": "function"
    },
    {
      "inputs": [
        {
          "internalType": "address",
          "name": "_to",
          "type": "address"
        },
        {
          "internalType": "uint256",
          "name": "_value",
          "type": "uint256"
        }
      ],
      "name": "transfer",
      "outputs": [
        {
          "internalType": "bool",
          "name": "success",
          "type": "bool"
        }
      ],
      "stateMutability": "nonpayable",
      "type": "function"
    },
    {
      "inputs": [
        {
          "internalType": "address",
          "name": "_from",
          "type": "address"
        },
        {
          "internalType": "address",
          "name": "_to",
          "type": "address"
        },
        {
          "internalType": "uint256",
          "name": "_value",
          "type": "uint256"
        }
      ],
      "name": "transferFrom",
      "outputs": [
        {
          "internalType": "bool",
          "name": "success",
          "type": "bool"
        }
      ],
      "stateMutability": "nonpayable",
      "type": "function"
    }
  ],
  "bytecode": "0x608060405234801561000f575f5ffd5b506040516116dc3803806116dc83398181016040528101906100319190610251565b825f908161003f91906104e0565b50816001908161004f91906104e0565b50601260025f6101000a81548160ff021916908360ff160217905550670de0b6b3a76400008161007f91906105dc565b60038190555060035460045f3373ffffffffffffffffffffffffffffffffffffffff1673ffffffffffffffffffffffffffffffffffffffff1681526020019081526020015f208190555050505061061d565b5f604051905090565b5f5ffd5b5f5ffd5b5f5ffd5b5f5ffd5b5f601f19601f8301169050919050565b7f4e487b71000000000000000000000000000000000000000000000000000000005f52604160045260245ffd5b610130826100ea565b810181811067ffffffffffffffff8211171561014f5761014e6100fa565b5b80604052505050565b5f6101616100d1565b905061016d8282610127565b919050565b5f67ffffffffffffffff82111561018c5761018b6100fa565b5b610195826100ea565b9050602081019050919050565b8281835e5f83830152505050565b5f6101c26101bd84610172565b610158565b9050828152602081018484840111156101de576101dd6100e6565b5b6101e98482856101a2565b509392505050565b5f82601f830112610205576102046100e2565b5b81516102158482602086016101b0565b91505092915050565b5f819050919050565b6102308161021e565b811461023a575f5ffd5b50565b5f8151905061024b81610227565b92915050565b5f5f5f60608486031215610268576102676100da565b5b5f84015167ffffffffffffffff811115610285576102846100de565b5b610291868287016101f1565b935050602084015167ffffffffffffffff8111156102b2576102b16100de565b5b6102be868287016101f1565b92505060406102cf8682870161023d565b9150509250925092565b5f81519050919050565b7f4e487b71000000000000000000000000000000000000000000000000000000005f52602260045260245ffd5b5f600282049050600182168061032757607f821691505b60208210810361033a576103396102e3565b5b50919050565b5f819050815f5260205f209050919050565b5f6020601f8301049050919050565b5f82821b905092915050565b5f6008830261039c7fffffffffffffffffffffffffffffffffffffffffffffffffffffffffffffffff82610361565b6103a68683610361565b95508019841693508086168417925050509392505050565b5f819050919050565b5f6103e16103dc6103d78461021e565b6103be565b61021e565b9050919050565b5f819050919050565b6103fa836103c7565b61040e610406826103e8565b84845461036d565b825550505050565b5f5f905090565b610425610416565b6104308184846103f1565b505050565b5b81811015610453576104485f8261041d565b600181019050610436565b5050565b601f8211156104985761046981610340565b61047284610352565b81016020851015610481578190505b61049561048d85610352565b830182610435565b50505b505050565b5f82821c905092915050565b5f6104b85f198460080261049d565b1980831691505092915050565b5f6104d083836104a9565b9150826002028217905092915050565b6104e9826102d9565b67ffffffffffffffff811115610502576105016100fa565b5b61050c8254610310565b610517828285610457565b5f60209050601f831160018114610548575f8415610536578287015190505b61054085826104c5565b8655506105a7565b601f19841661055686610340565b5f5b8281101561057d57848901518255600182019150602085019450602081019050610558565b8683101561059a5784890151610596601f8916826104a9565b8355505b6001600288020188555050505b505050505050565b7f4e487b71000000000000000000000000000000000000000000000000000000005f52601160045260245ffd5b5f6105e68261021e565b91506105f18361021e565b92508282026105ff8161021e565b91508282048414831517610616576106156105af565b5b5092915050565b6110b28061062a5f395ff3fe608060405234801561000f575f5ffd5b506004361061009c575f3560e01c806370a082311161006457806370a082311461015a57806395d89b411461018a578063a0712d68146101a8578063a9059cbb146101c4578063dd62ed3e146101f45761009c565b806306fdde03146100a0578063095ea7b3146100be57806318160ddd146100ee57806323b872dd1461010c578063313ce5671461013c575b5f5ffd5b6100a8610224565b6040516100b59190610bb1565b60405180910390f35b6100d860048036038101906100d39190610c62565b6102af565b6040516100e59190610cba565b60405180910390f35b6100f661040a565b6040516101039190610ce2565b60405180910390f35b61012660048036038101906101219190610cfb565b610410565b6040516101339190610cba565b60405180910390f35b61014461075e565b6040516101519190610d66565b60405180910390f35b610174600480360381019061016f9190610d7f565b610770565b6040516101819190610ce2565b60405180910390f35b610192610785565b60405161019f9190610bb1565b60405180910390f35b6101c260048036038101906101bd9190610daa565b610811565b005b6101de60048036038101906101d99190610c62565b61091d565b6040516101eb9190610cba565b60405180910390f35b61020e60048036038101906102099190610dd5565b610b21565b60405161021b9190610ce2565b60405180910390f35b5f805461023090610e40565b80601f016020809104026020016040519081016040528092919081815260200182805461025c90610e40565b80156102a75780601f1061027e576101008083540402835291602001916102a7565b820191905f5260205f20905b81548152906001019060200180831161028a57829003601f168201915b505050505081565b5f5f73ffffffffffffffffffffffffffffffffffffffff168373ffffffffffffffffffffffffffffffffffffffff160361031e576040517f08c379a000000000000000000000000000000000000000000000000000000000815260040161031590610eba565b60405180910390fd5b8160055f3373ffffffffffffffffffffffffffffffffffffffff1673ffffffffffffffffffffffffffffffffffffffff1681526020019081526020015f205f8573ffffffffffffffffffffffffffffffffffffffff1673ffffffffffffffffffffffffffffffffffffffff1681526020019081526020015f20819055508273ffffffffffffffffffffffffffffffffffffffff163373ffffffffffffffffffffffffffffffffffffffff167f8c5be1e5ebec7d5bd14f71427d1e84f3dd0314c0f7b2291e5b200ac8c7c3b925846040516103f89190610ce2565b60405180910390a36001905092915050565b60035481565b5f8160045f8673ffffffffffffffffffffffffffffffffffffffff1673ffffffffffffffffffffffffffffffffffffffff1681526020019081526020015f20541015610491576040517f08c379a000000000000000000000000000000000000000000000000000000000815260040161048890610f22565b60405180910390fd5b5f73ffffffffffffffffffffffffffffffffffffffff168373ffffffffffffffffffffffffffffffffffffffff16036104ff576040517f08c379a00000000000000000000000000000000000000000000000000000000081526004016104f690610eba565b60405180910390fd5b8160055f8673ffffffffffffffffffffffffffffffffffffffff1673ffffffffffffffffffffffffffffffffffffffff1681526020019081526020015f205f3373ffffffffffffffffffffffffffffffffffffffff1673ffffffffffffffffffffffffffffffffffffffff1681526020019081526020015f205410156105ba576040517f08c379a00000000000000000000000000000000000000000000000000000000081526004016105b190610f8a565b60405180910390fd5b8160045f8673ffffffffffffffffffffffffffffffffffffffff1673ffffffffffffffffffffffffffffffffffffffff1681526020019081526020015f205f8282546106069190610fd5565b925050819055508160045f8573ffffffffffffffffffffffffffffffffffffffff1673ffffffffffffffffffffffffffffffffffffffff1681526020019081526020015f205f8282546106599190611008565b925050819055508160055f8673ffffffffffffffffffffffffffffffffffffffff1673ffffffffffffffffffffffffffffffffffffffff1681526020019081526020015f205f3373ffffffffffffffffffffffffffffffffffffffff1673ffffffffffffffffffffffffffffffffffffffff1681526020019081526020015f205f8282546106e79190610fd5565b925050819055508273ffffffffffffffffffffffffffffffffffffffff168473ffffffffffffffffffffffffffffffffffffffff167fddf252ad1be2c89b69c2b068fc378daa952ba7f163c4a11628f55a4df523b3ef8460405161074b9190610ce2565b60405180910390a3600190509392505050565b60025f9054906101000a900460ff1681565b6004602052805f5260405f205f915090505481565b6001805461079290610e40565b80601f01602080910402602001604051908101604052809291908181526020018280546107be90610e40565b80156108095780601f106107e057610100808354040283529160200191610809565b820191905f5260205f20905b8154815290600101906020018083116107ec57829003601f168201915b505050505081565b670de0b6b3a764000081610825919061103b565b60035f8282546108359190611008565b92505081905550670de0b6b3a764000081610850919061103b565b60045f3373ffffffffffffffffffffffffffffffffffffffff1673ffffffffffffffffffffffffffffffffffffffff1681526020019081526020015f205f82825461089b9190611008565b925050819055503373ffffffffffffffffffffffffffffffffffffffff165f73ffffffffffffffffffffffffffffffffffffffff167fddf252ad1be2c89b69c2b068fc378daa952ba7f163c4a11628f55a4df523b3ef670de0b6b3a764000084610905919061103b565b6040516109129190610ce2565b60405180910390a350565b5f8160045f3373ffffffffffffffffffffffffffffffffffffffff1673ffffffffffffffffffffffffffffffffffffffff1681526020019081526020015f2054101561099e576040517f08c379a000000000000000000000000000000000000000000000000000000000815260040161099590610f22565b60405180910390fd5b5f73ffffffffffffffffffffffffffffffffffffffff168373ffffffffffffffffffffffffffffffffffffffff1603610a0c576040517f08c379a0000000000000000000000000000000000000000000000000000000008152600401610a0390610eba565b60405180910390fd5b8160045f3373ffffffffffffffffffffffffffffffffffffffff1673ffffffffffffffffffffffffffffffffffffffff1681526020019081526020015f205f828254610a589190610fd5565b925050819055508160045f8573ffffffffffffffffffffffffffffffffffffffff1673ffffffffffffffffffffffffffffffffffffffff1681526020019081526020015f205f828254610aab9190611008565b925050819055508273ffffffffffffffffffffffffffffffffffffffff163373ffffffffffffffffffffffffffffffffffffffff167fddf252ad1be2c89b69c2b068fc378daa952ba7f163c4a11628f55a4df523b3ef84604051610b0f9190610ce2565b60405180910390a36001905092915050565b6005602052815f5260405f20602052805f5260405f205f91509150505481565b5f81519050919050565b5f82825260208201905092915050565b8281835e5f83830152505050565b5f601f19601f8301169050919050565b5f610b8382610b41565b610b8d8185610b4b565b9350610b9d818560208601610b5b565b610ba681610b69565b840191505092915050565b5f6020820190508181035f830152610bc98184610b79565b905092915050565b5f5ffd5b5f73ffffffffffffffffffffffffffffffffffffffff82169050919050565b5f610bfe82610bd5565b9050919050565b610c0e81610bf4565b8114610c18575f5ffd5b50565b5f81359050610c2981610c05565b92915050565b5f819050919050565b610c4181610c2f565b8114610c4b575f5ffd5b50565b5f81359050610c5c81610c38565b92915050565b5f5f60408385031215610c7857610c77610bd1565b5b5f610c8585828601610c1b565b9250506020610c9685828601610c4e565b9150509250929050565b5f8115159050919050565b610cb481610ca0565b82525050565b5f602082019050610ccd5f830184610cab565b92915050565b610cdc81610c2f565b82525050565b5f602082019050610cf55f830184610cd3565b92915050565b5f5f5f60608486031215610d1257610d11610bd1565b5b5f610d1f86828701610c1b565b9350506020610d3086828701610c1b565b9250506040610d4186828701610c4e565b9150509250925092565b5f60ff82169050919050565b610d6081610d4b565b82525050565b5f602082019050610d795f830184610d57565b92915050565b5f60208284031215610d9457610d93610bd1565b5b5f610da184828501610c1b565b91505092915050565b5f60208284031215610dbf57610dbe610bd1565b5b5f610dcc84828501610c4e565b91505092915050565b5f5f60408385031215610deb57610dea610bd1565b5b5f610df885828601610c1b565b9250506020610e0985828601610c1b565b9150509250929050565b7f4e487b71000000000000000000000000000000000000000000000000000000005f52602260045260245ffd5b5f6002820490506001821680610e5757607f821691505b602082108103610e6a57610e69610e13565b5b50919050565b7f496e76616c6964206164647265737300000000000000000000000000000000005f82015250565b5f610ea4600f83610b4b565b9150610eaf82610e70565b602082019050919050565b5f6020820190508181035f830152610ed181610e98565b9050919050565b7f496e73756666696369656e742062616c616e63650000000000000000000000005f82015250565b5f610f0c601483610b4b565b9150610f1782610ed8565b602082019050919050565b5f6020820190508181035f830152610f3981610f00565b9050919050565b7f416c6c6f77616e636520657863656564656400000000000000000000000000005f82015250565b5f610f74601283610b4b565b9150610f7f82610f40565b602082019050919050565b5f6020820190508181035f830152610fa181610f68565b9050919050565b7f4e487b71000000000000000000000000000000000000000000000000000000005f52601160045260245ffd5b5f610fdf82610c2f565b9150610fea83610c2f565b925082820390508181111561100257611001610fa8565b5b92915050565b5f61101282610c2f565b915061101d83610c2f565b925082820190508082111561103557611034610fa8565b5b92915050565b5f61104582610c2f565b915061105083610c2f565b925082820261105e81610c2f565b9150828204841483151761107557611074610fa8565b5b509291505056fea264697066735822122040b6eb8fe4c0bc7d58798188d66dae489e360735b07a164cb2f16b19440a7f4b64736f6c634300081c0033",
  "linkReferences": {},
  "deployedLinkReferences": {},
  "immutableReferences": {},
  "inputSourceName": "project/contracts/ERC1589.sol",
  "buildInfoId": "solc-0_8_28-5065ae3e8c7b23d3fa1315f0a64a0a5ffc3a44ce"
}