{
  "_format": "hh-sol-artifact-1",
  "contractName": "MiniSwap",
  "sourceName": "contracts/MiniSwap.sol",
  "abi": [
    {
      "inputs": [
        {
          "internalType": "address",
          "name": "_tokenA",
          "type": "address"
        },
        {
          "internalType": "address",
          "name": "_tokenB",
          "type": "address"
        }
      ],
      "stateMutability": "nonpayable",
      "type": "constructor"
    },
    {
      "anonymous": false,
      "inputs": [
        {
          "indexed": true,
          "internalType": "address",
          "name": "provider",
          "type": "address"
        },
        {
          "indexed": false,
          "internalType": "uint256",
          "name": "amountA",
          "type": "uint256"
        },
        {
          "indexed": false,
          "internalType": "uint256",
          "name": "amountB",
          "type": "uint256"
        }
      ],
      "name": "LiquidityAdded",
      "type": "event"
    },
    {
      "anonymous": false,
      "inputs": [
        {
          "indexed": true,
          "internalType": "address",
          "name": "provider",
          "type": "address"
        },
        {
          "indexed": false,
          "internalType": "uint256",
          "name": "amount",
          "type": "uint256"
        }
      ],
      "name": "LiquidityRemoved",
      "type": "event"
    },
    {
      "anonymous": false,
      "inputs": [
        {
          "indexed": true,
          "internalType": "address",
          "name": "user",
          "type": "address"
        },
        {
          "indexed": true,
          "internalType": "address",
          "name": "tokenIn",
          "type": "address"
        },
        {
          "indexed": true,
          "internalType": "address",
          "name": "tokenOut",
          "type": "address"
        },
        {
          "indexed": false,
          "internalType": "uint256",
          "name": "amountIn",
          "type": "uint256"
        },
        {
          "indexed": false,
          "internalType": "uint256",
          "name": "amountOut",
          "type": "uint256"
        }
      ],
      "name": "Swap",
      "type": "event"
    },
    {
      "inputs": [
        {
          "internalType": "uint256",
          "name": "amountA",
          "type": "uint256"
        },
        {
          "internalType": "uint256",
          "name": "amountB",
          "type": "uint256"
        }
      ],
      "name": "addLiquidity",
      "outputs": [],
      "stateMutability": "nonpayable",
      "type": "function"
    },
    {
      "inputs": [],
      "name": "getPoolBalances",
      "outputs": [
        {
          "internalType": "uint256",
          "name": "balanceA",
          "type": "uint256"
        },
        {
          "internalType": "uint256",
          "name": "balanceB",
          "type": "uint256"
        }
      ],
      "stateMutability": "view",
      "type": "function"
    },
    {
      "inputs": [
        {
          "internalType": "address",
          "name": "",
          "type": "address"
        }
      ],
      "name": "liquidity",
      "outputs": [
        {
          "internalType": "uint256",
          "name": "",
          "type": "uint256"
        }
      ],
      "stateMutability": "view",
      "type": "function"
    },
    {
      "inputs": [
        {
          "internalType": "uint256",
          "name": "amount",
          "type": "uint256"
        }
      ],
      "name": "removeLiquidity",
      "outputs": [],
      "stateMutability": "nonpayable",
      "type": "function"
    },
    {
      "inputs": [
        {
          "internalType": "address",
          "name": "tokenIn",
          "type": "address"
        },
        {
          "internalType": "uint256",
          "name": "amountIn",
          "type": "uint256"
        }
      ],
      "name": "swap",
      "outputs": [],
      "stateMutability": "nonpayable",
      "type": "function"
    },
    {
      "inputs": [],
      "name": "tokenA",
      "outputs": [
        {
          "internalType": "contract IERC20",
          "name": "",
          "type": "address"
        }
      ],
      "stateMutability": "view",
      "type": "function"
    },
    {
      "inputs": [],
      "name": "tokenB",
      "outputs": [
        {
          "internalType": "contract IERC20",
          "name": "",
          "type": "address"
        }
      ],
      "stateMutability": "view",
      "type": "function"
    },
    {
      "inputs": [],
      "name": "totalLiquidity",
      "outputs": [
        {
          "internalType": "uint256",
          "name": "",
          "type": "uint256"
        }
      ],
      "stateMutability": "view",
      "type": "function"
    }
  ],
  "bytecode": "0x60806040523480156200001157600080fd5b50604051620014c5380380620014c583398181016040528101906200003791906200012a565b816000806101000a81548173ffffffffffffffffffffffffffffffffffffffff021916908373ffffffffffffffffffffffffffffffffffffffff16021790555080600160006101000a81548173ffffffffffffffffffffffffffffffffffffffff021916908373ffffffffffffffffffffffffffffffffffffffff160217905550505062000171565b600080fd5b600073ffffffffffffffffffffffffffffffffffffffff82169050919050565b6000620000f282620000c5565b9050919050565b6200010481620000e5565b81146200011057600080fd5b50565b6000815190506200012481620000f9565b92915050565b60008060408385031215620001445762000143620000c0565b5b6000620001548582860162000113565b9250506020620001678582860162000113565b9150509250929050565b61134480620001816000396000f3fe608060405234801561001057600080fd5b50600436106100885760003560e01c80639c8f9f231161005b5780639c8f9f23146101065780639cd441da14610122578063b8c876b11461013e578063d004f0f71461016e57610088565b80630fc63d101461008d57806315770f92146100ab57806352375bb1146100c95780635f64b55b146100e8575b600080fd5b61009561018a565b6040516100a29190610d58565b60405180910390f35b6100b36101ae565b6040516100c09190610d8c565b60405180910390f35b6100d16101b4565b6040516100df929190610da7565b60405180910390f35b6100f06102f5565b6040516100fd9190610d58565b60405180910390f35b610120600480360381019061011b9190610e01565b61031b565b005b61013c60048036038101906101379190610e2e565b6105e0565b005b61015860048036038101906101539190610eac565b61086c565b6040516101659190610d8c565b60405180910390f35b61018860048036038101906101839190610ed9565b610884565b005b60008054906101000a900473ffffffffffffffffffffffffffffffffffffffff1681565b60035481565b60008060008054906101000a900473ffffffffffffffffffffffffffffffffffffffff1673ffffffffffffffffffffffffffffffffffffffff166370a08231306040518263ffffffff1660e01b81526004016102109190610f28565b602060405180830381865afa15801561022d573d6000803e3d6000fd5b505050506040513d601f19601f820116820180604052508101906102519190610f58565b9150600160009054906101000a900473ffffffffffffffffffffffffffffffffffffffff1673ffffffffffffffffffffffffffffffffffffffff166370a08231306040518263ffffffff1660e01b81526004016102ae9190610f28565b602060405180830381865afa1580156102cb573d6000803e3d6000fd5b505050506040513d601f19601f820116820180604052508101906102ef9190610f58565b90509091565b600160009054906101000a900473ffffffffffffffffffffffffffffffffffffffff1681565b6000811161035e576040517f08c379a000000000000000000000000000000000000000000000000000000000815260040161035590610fe2565b60405180910390fd5b80600260003373ffffffffffffffffffffffffffffffffffffffff1673ffffffffffffffffffffffffffffffffffffffff1681526020019081526020016000205410156103e0576040517f08c379a00000000000000000000000000000000000000000000000000000000081526004016103d79061104e565b60405180910390fd5b80600260003373ffffffffffffffffffffffffffffffffffffffff1673ffffffffffffffffffffffffffffffffffffffff168152602001908152602001600020600082825461042f919061109d565b925050819055508060036000828254610448919061109d565b9250508190555060008054906101000a900473ffffffffffffffffffffffffffffffffffffffff1673ffffffffffffffffffffffffffffffffffffffff1663a9059cbb33836040518363ffffffff1660e01b81526004016104aa9291906110d1565b6020604051808303816000875af11580156104c9573d6000803e3d6000fd5b505050506040513d601f19601f820116820180604052508101906104ed9190611132565b50600160009054906101000a900473ffffffffffffffffffffffffffffffffffffffff1673ffffffffffffffffffffffffffffffffffffffff1663a9059cbb33836040518363ffffffff1660e01b815260040161054b9291906110d1565b6020604051808303816000875af115801561056a573d6000803e3d6000fd5b505050506040513d601f19601f8201168201806040525081019061058e9190611132565b503373ffffffffffffffffffffffffffffffffffffffff167fc2c3f06e49b9f15e7b4af9055e183b0d73362e033ad82a07dec9bf9840171719826040516105d59190610d8c565b60405180910390a250565b808214610622576040517f08c379a0000000000000000000000000000000000000000000000000000000008152600401610619906111ab565b60405180910390fd5b60008211610665576040517f08c379a000000000000000000000000000000000000000000000000000000000815260040161065c90610fe2565b60405180910390fd5b60008054906101000a900473ffffffffffffffffffffffffffffffffffffffff1673ffffffffffffffffffffffffffffffffffffffff166323b872dd3330856040518463ffffffff1660e01b81526004016106c2939291906111cb565b6020604051808303816000875af11580156106e1573d6000803e3d6000fd5b505050506040513d601f19601f820116820180604052508101906107059190611132565b50600160009054906101000a900473ffffffffffffffffffffffffffffffffffffffff1673ffffffffffffffffffffffffffffffffffffffff166323b872dd3330846040518463ffffffff1660e01b8152600401610765939291906111cb565b6020604051808303816000875af1158015610784573d6000803e3d6000fd5b505050506040513d601f19601f820116820180604052508101906107a89190611132565b5081600260003373ffffffffffffffffffffffffffffffffffffffff1673ffffffffffffffffffffffffffffffffffffffff16815260200190815260200160002060008282546107f89190611202565b9250508190555081600360008282546108119190611202565b925050819055503373ffffffffffffffffffffffffffffffffffffffff167fac1d76749e5447b7b16f5ab61447e1bd502f3bb4807af3b28e620d1700a6ee458383604051610860929190610da7565b60405180910390a25050565b60026020528060005260406000206000915090505481565b600081116108c7576040517f08c379a00000000000000000000000000000000000000000000000000000000081526004016108be90610fe2565b60405180910390fd5b60008054906101000a900473ffffffffffffffffffffffffffffffffffffffff1673ffffffffffffffffffffffffffffffffffffffff168273ffffffffffffffffffffffffffffffffffffffff16148061096e5750600160009054906101000a900473ffffffffffffffffffffffffffffffffffffffff1673ffffffffffffffffffffffffffffffffffffffff168273ffffffffffffffffffffffffffffffffffffffff16145b6109ad576040517f08c379a00000000000000000000000000000000000000000000000000000000081526004016109a490611282565b60405180910390fd5b60008060008054906101000a900473ffffffffffffffffffffffffffffffffffffffff1673ffffffffffffffffffffffffffffffffffffffff168473ffffffffffffffffffffffffffffffffffffffff1603610a505760008054906101000a900473ffffffffffffffffffffffffffffffffffffffff169150600160009054906101000a900473ffffffffffffffffffffffffffffffffffffffff169050610a99565b600160009054906101000a900473ffffffffffffffffffffffffffffffffffffffff16915060008054906101000a900473ffffffffffffffffffffffffffffffffffffffff1690505b828173ffffffffffffffffffffffffffffffffffffffff166370a08231306040518263ffffffff1660e01b8152600401610ad39190610f28565b602060405180830381865afa158015610af0573d6000803e3d6000fd5b505050506040513d601f19601f82011682018060405250810190610b149190610f58565b1015610b55576040517f08c379a0000000000000000000000000000000000000000000000000000000008152600401610b4c906112ee565b60405180910390fd5b8173ffffffffffffffffffffffffffffffffffffffff166323b872dd3330866040518463ffffffff1660e01b8152600401610b92939291906111cb565b6020604051808303816000875af1158015610bb1573d6000803e3d6000fd5b505050506040513d601f19601f82011682018060405250810190610bd59190611132565b508073ffffffffffffffffffffffffffffffffffffffff1663a9059cbb33856040518363ffffffff1660e01b8152600401610c119291906110d1565b6020604051808303816000875af1158015610c30573d6000803e3d6000fd5b505050506040513d601f19601f82011682018060405250810190610c549190611132565b508073ffffffffffffffffffffffffffffffffffffffff168473ffffffffffffffffffffffffffffffffffffffff163373ffffffffffffffffffffffffffffffffffffffff167fcd3829a3813dc3cdd188fd3d01dcf3268c16be2fdd2dd21d0665418816e460628687604051610ccb929190610da7565b60405180910390a450505050565b600073ffffffffffffffffffffffffffffffffffffffff82169050919050565b6000819050919050565b6000610d1e610d19610d1484610cd9565b610cf9565b610cd9565b9050919050565b6000610d3082610d03565b9050919050565b6000610d4282610d25565b9050919050565b610d5281610d37565b82525050565b6000602082019050610d6d6000830184610d49565b92915050565b6000819050919050565b610d8681610d73565b82525050565b6000602082019050610da16000830184610d7d565b92915050565b6000604082019050610dbc6000830185610d7d565b610dc96020830184610d7d565b9392505050565b600080fd5b610dde81610d73565b8114610de957600080fd5b50565b600081359050610dfb81610dd5565b92915050565b600060208284031215610e1757610e16610dd0565b5b6000610e2584828501610dec565b91505092915050565b60008060408385031215610e4557610e44610dd0565b5b6000610e5385828601610dec565b9250506020610e6485828601610dec565b9150509250929050565b6000610e7982610cd9565b9050919050565b610e8981610e6e565b8114610e9457600080fd5b50565b600081359050610ea681610e80565b92915050565b600060208284031215610ec257610ec1610dd0565b5b6000610ed084828501610e97565b91505092915050565b60008060408385031215610ef057610eef610dd0565b5b6000610efe85828601610e97565b9250506020610f0f85828601610dec565b9150509250929050565b610f2281610e6e565b82525050565b6000602082019050610f3d6000830184610f19565b92915050565b600081519050610f5281610dd5565b92915050565b600060208284031215610f6e57610f6d610dd0565b5b6000610f7c84828501610f43565b91505092915050565b600082825260208201905092915050565b7f416d6f756e74206d7573742062652067726561746572207468616e2030000000600082015250565b6000610fcc601d83610f85565b9150610fd782610f96565b602082019050919050565b60006020820190508181036000830152610ffb81610fbf565b9050919050565b7f496e73756666696369656e74206c697175696469747900000000000000000000600082015250565b6000611038601683610f85565b915061104382611002565b602082019050919050565b600060208201905081810360008301526110678161102b565b9050919050565b7f4e487b7100000000000000000000000000000000000000000000000000000000600052601160045260246000fd5b60006110a882610d73565b91506110b383610d73565b92508282039050818111156110cb576110ca61106e565b5b92915050565b60006040820190506110e66000830185610f19565b6110f36020830184610d7d565b9392505050565b60008115159050919050565b61110f816110fa565b811461111a57600080fd5b50565b60008151905061112c81611106565b92915050565b60006020828403121561114857611147610dd0565b5b60006111568482850161111d565b91505092915050565b7f4d7573742070726f7669646520313a3120726174696f00000000000000000000600082015250565b6000611195601683610f85565b91506111a08261115f565b602082019050919050565b600060208201905081810360008301526111c481611188565b9050919050565b60006060820190506111e06000830186610f19565b6111ed6020830185610f19565b6111fa6040830184610d7d565b949350505050565b600061120d82610d73565b915061121883610d73565b92508282019050808211156112305761122f61106e565b5b92915050565b7f496e76616c696420746f6b656e00000000000000000000000000000000000000600082015250565b600061126c600d83610f85565b915061127782611236565b602082019050919050565b6000602082019050818103600083015261129b8161125f565b9050919050565b7f496e73756666696369656e7420706f6f6c2062616c616e636500000000000000600082015250565b60006112d8601983610f85565b91506112e3826112a2565b602082019050919050565b60006020820190508181036000830152611307816112cb565b905091905056fea2646970667358221220dc5e3284c990f41497aa019934b01886783d5fd0a1ca97b68bdd1b02e075635364736f6c63430008140033",
  "linkReferences": {},
  "deployedLinkReferences": {}
}