{
  "_format": "hh3-artifact-1",
  "contractName": "Storage",
  "sourceName": "contracts/Storage.sol",
  "abi": [
    {
      "anonymous": false,
      "inputs": [
        {
          "indexed": false,
          "internalType": "uint256",
          "name": "newNumber",
          "type": "uint256"
        }
      ],
      "name": "NumberStored",
      "type": "event"
    },
    {
      "inputs": [],
      "name": "getNumber",
      "outputs": [
        {
          "internalType": "uint256",
          "name": "",
          "type": "uint256"
        }
      ],
      "stateMutability": "view",
      "type": "function"
    },
    {
      "inputs": [
        {
          "internalType": "uint256",
          "name": "_number",
          "type": "uint256"
        }
      ],
      "name": "setNumber",
      "outputs": [],
      "stateMutability": "nonpayable",
      "type": "function"
    }
  ],
  "bytecode": "0x6080604052348015600e575f5ffd5b5060df80601a5f395ff3fe6080604052348015600e575f5ffd5b50600436106030575f3560e01c80633fb5c1cb146034578063f2c9ecd8146045575b5f5ffd5b6043603f3660046093565b6059565b005b5f5460405190815260200160405180910390f35b5f8190556040518181527f3564ffb2fd8f93d7b0e9d1173ffdff5ee9775d860bfe82eaca0d0dbe07c8b6349060200160405180910390a150565b5f6020828403121560a2575f5ffd5b503591905056fea264697066735822122040fe930e2b27d0bdb7a046f2936ba98b6c86b74ec91840eae3471c8a53a777b964736f6c634300081c0033",
  "linkReferences": {},
  "deployedLinkReferences": {},
  "immutableReferences": {},
  "inputSourceName": "project/contracts/Storage.sol",
  "buildInfoId": "solc-0_8_28-4b8c5287c817107bb56705eee4a98a8255acdef1"
}